{
  "contractName": "StackedPrivateSaleVestingManager",
  "abi": [
    {
      "inputs": [
        {
          "internalType": "address",
          "name": "_stacked",
          "type": "address"
        }
      ],
      "stateMutability": "nonpayable",
      "type": "constructor"
    },
    {
      "anonymous": false,
      "inputs": [
        {
          "indexed": false,
          "internalType": "address",
          "name": "owner",
          "type": "address"
        }
      ],
      "name": "OwnershipTransferred",
      "type": "event"
    },
    {
      "inputs": [
        {
          "internalType": "address",
          "name": "adr",
          "type": "address"
        }
      ],
      "name": "authorize",
      "outputs": [],
      "stateMutability": "nonpayable",
      "type": "function"
    },
    {
      "inputs": [
        {
          "internalType": "address",
          "name": "adr",
          "type": "address"
        }
      ],
      "name": "isAuthorized",
      "outputs": [
        {
          "internalType": "bool",
          "name": "",
          "type": "bool"
        }
      ],
      "stateMutability": "view",
      "type": "function"
    },
    {
      "inputs": [
        {
          "internalType": "address",
          "name": "",
          "type": "address"
        }
      ],
      "name": "isBeneficiary",
      "outputs": [
        {
          "internalType": "bool",
          "name": "",
          "type": "bool"
        }
      ],
      "stateMutability": "view",
      "type": "function"
    },
    {
      "inputs": [
        {
          "internalType": "address",
          "name": "account",
          "type": "address"
        }
      ],
      "name": "isOwner",
      "outputs": [
        {
          "internalType": "bool",
          "name": "",
          "type": "bool"
        }
      ],
      "stateMutability": "view",
      "type": "function"
    },
    {
      "inputs": [
        {
          "internalType": "address payable",
          "name": "adr",
          "type": "address"
        }
      ],
      "name": "transferOwnership",
      "outputs": [],
      "stateMutability": "nonpayable",
      "type": "function"
    },
    {
      "inputs": [
        {
          "internalType": "address",
          "name": "adr",
          "type": "address"
        }
      ],
      "name": "unauthorize",
      "outputs": [],
      "stateMutability": "nonpayable",
      "type": "function"
    },
    {
      "inputs": [
        {
          "internalType": "address",
          "name": "",
          "type": "address"
        }
      ],
      "name": "vestingInstances",
      "outputs": [
        {
          "internalType": "contract StackedPrivateSaleVestingInstance",
          "name": "",
          "type": "address"
        }
      ],
      "stateMutability": "view",
      "type": "function"
    },
    {
      "inputs": [
        {
          "internalType": "address",
          "name": "_instanceAddress",
          "type": "address"
        },
        {
          "internalType": "address",
          "name": "_authorizedAddress",
          "type": "address"
        }
      ],
      "name": "authorizeInstance",
      "outputs": [],
      "stateMutability": "nonpayable",
      "type": "function"
    },
    {
      "inputs": [
        {
          "internalType": "address",
          "name": "user",
          "type": "address"
        }
      ],
      "name": "processInstance",
      "outputs": [],
      "stateMutability": "nonpayable",
      "type": "function"
    },
    {
      "inputs": [],
      "name": "getAllInstances",
      "outputs": [
        {
          "internalType": "contract StackedPrivateSaleVestingInstance[]",
          "name": "",
          "type": "address[]"
        }
      ],
      "stateMutability": "view",
      "type": "function"
    },
    {
      "inputs": [
        {
          "internalType": "address",
          "name": "user",
          "type": "address"
        }
      ],
      "name": "getAllAmountsForUser",
      "outputs": [
        {
          "internalType": "uint256",
          "name": "",
          "type": "uint256"
        },
        {
          "internalType": "uint256",
          "name": "",
          "type": "uint256"
        },
        {
          "internalType": "uint256",
          "name": "",
          "type": "uint256"
        }
      ],
      "stateMutability": "view",
      "type": "function"
    },
    {
      "inputs": [
        {
          "internalType": "uint256",
          "name": "start",
          "type": "uint256"
        },
        {
          "internalType": "uint256",
          "name": "end",
          "type": "uint256"
        }
      ],
      "name": "processMultipleInstances",
      "outputs": [],
      "stateMutability": "nonpayable",
      "type": "function"
    },
    {
      "inputs": [
        {
          "internalType": "address",
          "name": "instanceAddress",
          "type": "address"
        }
      ],
      "name": "cancelVestingInstance",
      "outputs": [],
      "stateMutability": "nonpayable",
      "type": "function"
    },
    {
      "inputs": [
        {
          "internalType": "address",
          "name": "token",
          "type": "address"
        },
        {
          "internalType": "address",
          "name": "to",
          "type": "address"
        },
        {
          "internalType": "uint256",
          "name": "amount",
          "type": "uint256"
        }
      ],
      "name": "withdrawERC20",
      "outputs": [],
      "stateMutability": "nonpayable",
      "type": "function"
    },
    {
      "inputs": [
        {
          "internalType": "address",
          "name": "user",
          "type": "address"
        }
      ],
      "name": "processOwedBUSD",
      "outputs": [],
      "stateMutability": "nonpayable",
      "type": "function"
    },
    {
      "inputs": [
        {
          "internalType": "uint256",
          "name": "start",
          "type": "uint256"
        },
        {
          "internalType": "uint256",
          "name": "end",
          "type": "uint256"
        }
      ],
      "name": "processMultipleOwedBUSD",
      "outputs": [],
      "stateMutability": "nonpayable",
      "type": "function"
    },
    {
      "inputs": [
        {
          "internalType": "contract StackedPrivateSaleVestingInstance",
          "name": "instance",
          "type": "address"
        }
      ],
      "name": "startSingleVesting",
      "outputs": [],
      "stateMutability": "nonpayable",
      "type": "function"
    },
    {
      "inputs": [
        {
          "internalType": "uint256",
          "name": "start",
          "type": "uint256"
        },
        {
          "internalType": "uint256",
          "name": "end",
          "type": "uint256"
        }
      ],
      "name": "startMultipleVesting",
      "outputs": [],
      "stateMutability": "nonpayable",
      "type": "function"
    },
    {
      "inputs": [
        {
          "internalType": "address",
          "name": "beneficiary",
          "type": "address"
        },
        {
          "internalType": "uint256",
          "name": "amount",
          "type": "uint256"
        }
      ],
      "name": "createVestingInstance",
      "outputs": [],
      "stateMutability": "nonpayable",
      "type": "function"
    }
  ],
  "bytecode": "0x608060405234801561001057600080fd5b5060405161231e38038061231e83398101604081905261002f9161007c565b60008054336001600160a01b0319918216811783558252600160208190526040909220805460ff1916909217909155600280549091166001600160a01b03929092169190911790556100ac565b60006020828403121561008e57600080fd5b81516001600160a01b03811681146100a557600080fd5b9392505050565b612263806100bb6000396000f3fe60806040523480156200001157600080fd5b5060043610620001285760003560e01c80635b0bef2811620000bb578063b6a5d7de116200007a578063b6a5d7de14620002d7578063d8b6797614620002ee578063f0b37c041462000305578063f2fde38b146200031c578063fe9fbb80146200033357600080fd5b80635b0bef2814620002155780635c5ae52d146200024857806377e0ead4146200025f5780639d19b2261462000276578063aeb9b285146200029c57600080fd5b80631ce1e5e2146200012d5780632be2215614620001465780632f54bf6e146200015d5780633029f801146200018957806337d21dd514620001a05780633b4933d114620001b75780633c54c47014620001ce57806344004cc114620001e557806352c228e314620001fc575b600080fd5b620001446200013e36600462000d7f565b6200034a565b005b620001446200015736600462000dae565b6200050f565b620001746200016e36600462000dae565b6200057f565b60405190151581526020015b60405180910390f35b620001446200019a36600462000dae565b62000593565b62000144620001b136600462000dd5565b62000610565b62000144620001c836600462000dae565b620006a3565b62000144620001df36600462000e13565b620006db565b62000144620001f636600462000e36565b6200075f565b62000206620008ba565b60405162000180919062000e7c565b6200022c6200022636600462000dae565b6200091e565b6040805193845260208401929092529082015260600162000180565b620001446200025936600462000e13565b620009b2565b620001446200027036600462000e13565b62000a7a565b620001746200028736600462000dae565b60036020526000908152604090205460ff1681565b620002c8620002ad36600462000dae565b6004602052600090815260409020546001600160a01b031681565b60405162000180919062000ecb565b62000144620002e836600462000dae565b62000b42565b62000144620002ff36600462000dae565b62000b93565b620001446200031636600462000dae565b62000bfe565b620001446200032d36600462000dae565b62000c49565b620001746200034436600462000dae565b62000ce5565b620003553362000ce5565b6200037d5760405162461bcd60e51b8152600401620003749062000edf565b60405180910390fd5b6002546040516000916001600160a01b031690839085906200039f9062000d5b565b6001600160a01b03938416815260208101929092529091166040820152606001604051809103906000f080158015620003dc573d6000803e3d6000fd5b5060058054600181019091557f036b6384b5eca791c62761152d0c79bb0604c104a5fb6f4eb0703f3154bb3db00180546001600160a01b038381166001600160a01b031992831681179093558681166000908152600460208190526040918290208054909416851790935560025490516323b872dd60e01b815233938101939093526024830193909352604482018690529293509116906323b872dd906064016020604051808303816000875af11580156200049c573d6000803e3d6000fd5b505050506040513d601f19601f82011682018060405250810190620004c2919062000f04565b6200050a5760405162461bcd60e51b815260206004820152601760248201527614dd1858dad95908151c985b9cd9995c8811985a5b1959604a1b604482015260640162000374565b505050565b6001600160a01b03808216600090815260046020819052604080832054815163afb5799960e01b81529151941693849363afb57999938381019391929182900301818387803b1580156200056257600080fd5b505af115801562000577573d6000803e3d6000fd5b505050505050565b6000546001600160a01b0391821691161490565b6200059e3362000ce5565b620005bd5760405162461bcd60e51b8152600401620003749062000edf565b6001600160a01b03808216600090815260046020819052604080832054815163726cecb160e11b81529151941693849363e4d9d962938381019391929182900301818387803b1580156200056257600080fd5b6200061b3362000ce5565b6200063a5760405162461bcd60e51b8152600401620003749062000edf565b604051635b52ebef60e11b815282906001600160a01b0382169063b6a5d7de906200066a90859060040162000ecb565b600060405180830381600087803b1580156200068557600080fd5b505af11580156200069a573d6000803e3d6000fd5b50505050505050565b620006ae3362000ce5565b620006cd5760405162461bcd60e51b8152600401620003749062000edf565b620006d88162000d03565b50565b620006e63362000ce5565b620007055760405162461bcd60e51b8152600401620003749062000edf565b815b8181116200050a5760006005828154811062000727576200072762000f28565b6000918252602090912001546001600160a01b03169050620007498162000d03565b5080620007568162000f3e565b91505062000707565b6200076a3362000ce5565b620007895760405162461bcd60e51b8152600401620003749062000edf565b8062000804576040516370a0823160e01b81526001600160a01b038416906370a0823190620007bd90309060040162000ecb565b602060405180830381865afa158015620007db573d6000803e3d6000fd5b505050506040513d601f19601f8201168201806040525081019062000801919062000f68565b90505b60405163a9059cbb60e01b81526001600160a01b0383811660048301526024820183905284169063a9059cbb906044016020604051808303816000875af115801562000854573d6000803e3d6000fd5b505050506040513d601f19601f820116820180604052508101906200087a919062000f04565b6200050a5760405162461bcd60e51b815260206004820152600f60248201526e151c985b9cd9995c8811985a5b1959608a1b604482015260640162000374565b606060058054806020026020016040519081016040528092919081815260200182805480156200091457602002820191906000526020600020905b81546001600160a01b03168152600190910190602001808311620008f5575b5050505050905090565b6001600160a01b03808216600090815260046020819052604080832054815163caf14b9560e01b815291519394859485949290911692839263caf14b959282820192606092908290030181865afa1580156200097e573d6000803e3d6000fd5b505050506040513d601f19601f82011682018060405250810190620009a4919062000f82565b935093509350509193909250565b620009bd3362000ce5565b620009dc5760405162461bcd60e51b8152600401620003749062000edf565b815b8181116200050a57600060058281548110620009fe57620009fe62000f28565b60009182526020822001546040805163afb5799960e01b815290516001600160a01b039092169350839263afb579999260048084019382900301818387803b15801562000a4a57600080fd5b505af115801562000a5f573d6000803e3d6000fd5b5050505050808062000a719062000f3e565b915050620009de565b62000a853362000ce5565b62000aa45760405162461bcd60e51b8152600401620003749062000edf565b815b8181116200050a5760006005828154811062000ac65762000ac662000f28565b60009182526020822001546040805163726cecb160e11b815290516001600160a01b039092169350839263e4d9d9629260048084019382900301818387803b15801562000b1257600080fd5b505af115801562000b27573d6000803e3d6000fd5b5050505050808062000b399062000f3e565b91505062000aa6565b62000b4d336200057f565b62000b6c5760405162461bcd60e51b8152600401620003749062000fb1565b6001600160a01b03166000908152600160208190526040909120805460ff19169091179055565b62000b9e3362000ce5565b62000bbd5760405162461bcd60e51b8152600401620003749062000edf565b6000819050806001600160a01b0316630fee00ba6040518163ffffffff1660e01b8152600401600060405180830381600087803b1580156200056257600080fd5b62000c09336200057f565b62000c285760405162461bcd60e51b8152600401620003749062000fb1565b6001600160a01b03166000908152600160205260409020805460ff19169055565b62000c54336200057f565b62000c735760405162461bcd60e51b8152600401620003749062000fb1565b600080546001600160a01b0319166001600160a01b0383169081178255815260016020819052604091829020805460ff19169091179055517f04dba622d284ed0014ee4b9a6a68386be1a4c08a4913ae272de89199cc6861639062000cda90839062000ecb565b60405180910390a150565b6001600160a01b031660009081526001602052604090205460ff1690565b806001600160a01b031663deb36e326040518163ffffffff1660e01b8152600401600060405180830381600087803b15801562000d3f57600080fd5b505af115801562000d54573d6000803e3d6000fd5b5050505050565b61125c8062000fd283390190565b6001600160a01b0381168114620006d857600080fd5b6000806040838503121562000d9357600080fd5b823562000da08162000d69565b946020939093013593505050565b60006020828403121562000dc157600080fd5b813562000dce8162000d69565b9392505050565b6000806040838503121562000de957600080fd5b823562000df68162000d69565b9150602083013562000e088162000d69565b809150509250929050565b6000806040838503121562000e2757600080fd5b50508035926020909101359150565b60008060006060848603121562000e4c57600080fd5b833562000e598162000d69565b9250602084013562000e6b8162000d69565b929592945050506040919091013590565b6020808252825182820181905260009190848201906040850190845b8181101562000ebf5783516001600160a01b03168352928401929184019160010162000e98565b50909695505050505050565b6001600160a01b0391909116815260200190565b6020808252600b908201526a085055551213d49256915160aa1b604082015260600190565b60006020828403121562000f1757600080fd5b8151801515811462000dce57600080fd5b634e487b7160e01b600052603260045260246000fd5b600060001982141562000f6157634e487b7160e01b600052601160045260246000fd5b5060010190565b60006020828403121562000f7b57600080fd5b5051919050565b60008060006060848603121562000f9857600080fd5b8351925060208401519150604084015190509250925092565b60208082526006908201526510a7aba722a960d11b60408201526060019056fe6080604052600480546001600160a01b03191673e9e7cea3dedca5984780bafc599bd69add087d56179055612710600655620151806009553480156200004457600080fd5b506040516200125c3803806200125c833981016040819052620000679162000273565b60008054336001600160a01b0319918216811783558252600160208190526040909220805460ff19169092179091556003805482166001600160a01b0384811691909117909155600280549092169085161790556007829055612710620000d1836105dc620002b4565b620000dd9190620002e2565b60008052600b6020527fdf7de25b7f1fd6d0b5205f0e18f1f35bd7b8d84cce336588d184533ce43a6f76556127106200011983610bb8620002b4565b620001259190620002e2565b6001600052600b6020527f72c6bfb7988af3a1efa6568f02a999bc52252641c659d85961ca3d372b57d5cf556127106200016283611194620002b4565b6200016e9190620002e2565b6002600052600b6020527fa50eece07c7db1631545c0069bd8f5f54d5935e215d59097edf258a44ba9163455612710620001ab83611770620002b4565b620001b79190620002e2565b6003600052600b6020527f64c15cc42be7899b001f818cf4433057002112c418d1d3a67cd5cb453051d33e55612710620001f483611d4c620002b4565b620002009190620002e2565b600b6020527f12d0c11577e2f0950f57c455c117796550b79f444811db8ba2f69c57b646c784555060056000527febae6141bae5521e99e0a8d610356b0f501fea54980b59c84841db43ba7204f4555062000305565b80516001600160a01b03811681146200026e57600080fd5b919050565b6000806000606084860312156200028957600080fd5b620002948462000256565b925060208401519150620002ab6040850162000256565b90509250925092565b6000816000190483118215151615620002dd57634e487b7160e01b600052601160045260246000fd5b500290565b6000826200030057634e487b7160e01b600052601260045260246000fd5b500490565b610f4780620003156000396000f3fe608060405234801561001057600080fd5b50600436106101585760003560e01c8063afb57999116100c3578063d54ad2a11161007c578063d54ad2a1146102ba578063deb36e32146102c3578063e4d9d962146102cb578063f0b37c04146102d3578063f2fde38b146102e6578063fe9fbb80146102f957600080fd5b8063afb5799914610246578063b44542531461024e578063b6a5d7de14610273578063be9a655514610286578063c354bd6e1461028f578063caf14b951461029757600080fd5b806340c442de1161011557806340c442de146101e6578063484f4ea9146101f95780634bd9351b1461020c5780635fa2336a146102155780637a7910651461021e578063af856c4b1461022657600080fd5b80630fee00ba1461015d57806312d0e65a14610167578063199cbc541461017a5780631f2698ab146101965780632f54bf6e146101b357806338af3eed146101c6575b600080fd5b61016561030c565b005b610165610175366004610dc3565b610412565b61018360075481565b6040519081526020015b60405180910390f35b600a546101a39060ff1681565b604051901515815260200161018d565b6101a36101c1366004610dc3565b610459565b6003546101d9906001600160a01b031681565b60405161018d9190610de7565b6101656101f4366004610dc3565b61046d565b6004546101d9906001600160a01b031681565b61018360095481565b61018360065481565b610183610658565b610183610234366004610dfb565b600b6020526000908152604090205481565b6101656106d0565b6102566106ff565b60408051938452602084019290925215159082015260600161018d565b610165610281366004610dc3565b610774565b61018360055481565b6101836107c0565b61029f6109b5565b6040805193845260208401929092529082015260600161018d565b61018360085481565b6101656109cc565b610165610a04565b6101656102e1366004610dc3565b610a31565b6101656102f4366004610dc3565b610a77565b6101a3610307366004610dc3565b610b0c565b61031533610b0c565b61033a5760405162461bcd60e51b815260040161033190610e14565b60405180910390fd5b610342610b2a565b60006008546007546103549190610e4f565b60025460005460405163a9059cbb60e01b81529293506001600160a01b039182169263a9059cbb9261038c9216908590600401610e66565b6020604051808303816000875af11580156103ab573d6000803e3d6000fd5b505050506040513d601f19601f820116820180604052508101906103cf9190610e7f565b61040f5760405162461bcd60e51b815260206004820152601160248201527015da5d1a191c985dd85b0811985a5b1959607a1b6044820152606401610331565b50565b61041b33610b0c565b6104375760405162461bcd60e51b815260040161033190610e14565b600380546001600160a01b0319166001600160a01b0392909216919091179055565b6000546001600160a01b0391821691161490565b61047633610b0c565b6104925760405162461bcd60e51b815260040161033190610e14565b6002546001600160a01b038281169116148015906104be57506004546001600160a01b03828116911614155b6105305760405162461bcd60e51b815260206004820152603c60248201527f506c6561736520757365207468652073706563696669656420636c61696d206660448201527f756e63746f6e7320666f7220737461636b656420616e642042555344000000006064820152608401610331565b6000546040516370a0823160e01b81526001600160a01b038084169263a9059cbb9291169083906370a082319061056b903090600401610de7565b602060405180830381865afa158015610588573d6000803e3d6000fd5b505050506040513d601f19601f820116820180604052508101906105ac9190610ea1565b6040518363ffffffff1660e01b81526004016105c9929190610e66565b6020604051808303816000875af11580156105e8573d6000803e3d6000fd5b505050506040513d601f19601f8201168201806040525081019061060c9190610e7f565b61040f5760405162461bcd60e51b815260206004820152601b60248201527f456d657267656e6379207769746864726177616c206661696c656400000000006044820152606401610331565b600480546040516370a0823160e01b81526000926001600160a01b03909216916370a082319161068a91309101610de7565b602060405180830381865afa1580156106a7573d6000803e3d6000fd5b505050506040513d601f19601f820116820180604052508101906106cb9190610ea1565b905090565b6106d933610b0c565b6106f55760405162461bcd60e51b815260040161033190610e14565b6106fd610c14565b565b600080600080600554426107139190610e4f565b6000808052600b6020527fdf7de25b7f1fd6d0b5205f0e18f1f35bd7b8d84cce336588d184533ce43a6f7654600954929350909161075290601e610eba565b60055461075f9042610e4f565b1061076957600191505b919591945092509050565b61077d33610459565b6107995760405162461bcd60e51b815260040161033190610ed9565b6001600160a01b03166000908152600160208190526040909120805460ff19169091179055565b600060095460b46107d19190610eba565b6005546107de9042610e4f565b106107f3576008546007546106cb9190610e4f565b600954610801906096610eba565b60055461080e9042610e4f565b1061084c576008546004600052600b6020527f12d0c11577e2f0950f57c455c117796550b79f444811db8ba2f69c57b646c784546106cb9190610e4f565b60095461085a906078610eba565b6005546108679042610e4f565b106108a5576008546003600052600b6020527f64c15cc42be7899b001f818cf4433057002112c418d1d3a67cd5cb453051d33e546106cb9190610e4f565b6009546108b390605a610eba565b6005546108c09042610e4f565b106108fe576008546002600052600b6020527fa50eece07c7db1631545c0069bd8f5f54d5935e215d59097edf258a44ba91634546106cb9190610e4f565b60095461090c90603c610eba565b6005546109199042610e4f565b10610957576008546001600052600b6020527f72c6bfb7988af3a1efa6568f02a999bc52252641c659d85961ca3d372b57d5cf546106cb9190610e4f565b60095461096590601e610eba565b6005546109729042610e4f565b106109af5760085460008052600b6020527fdf7de25b7f1fd6d0b5205f0e18f1f35bd7b8d84cce336588d184533ce43a6f76546106cb9190610e4f565b50600090565b60075460085460006109c56107c0565b9050909192565b6109d533610b0c565b6109f15760405162461bcd60e51b815260040161033190610e14565b42600555600a805460ff19166001179055565b610a0d33610b0c565b610a295760405162461bcd60e51b815260040161033190610e14565b6106fd610b2a565b610a3a33610459565b610a565760405162461bcd60e51b815260040161033190610ed9565b6001600160a01b03166000908152600160205260409020805460ff19169055565b610a8033610459565b610a9c5760405162461bcd60e51b815260040161033190610ed9565b600080546001600160a01b0319166001600160a01b0383169081178255815260016020819052604091829020805460ff19169091179055517f04dba622d284ed0014ee4b9a6a68386be1a4c08a4913ae272de89199cc68616390610b01908390610de7565b60405180910390a150565b6001600160a01b031660009081526001602052604090205460ff1690565b610b32610c14565b6000610b3c6107c0565b90508060086000828254610b509190610ef9565b909155505060025460035460405163a9059cbb60e01b81526001600160a01b039283169263a9059cbb92610b8b929116908590600401610e66565b6020604051808303816000875af1158015610baa573d6000803e3d6000fd5b505050506040513d601f19601f82011682018060405250810190610bce9190610e7f565b61040f5760405162461bcd60e51b815260206004820152601760248201527614dd1858dad95908151c985b9cd9995c8811985a5b1959604a1b6044820152606401610331565b600260009054906101000a90046001600160a01b03166001600160a01b031663f0fc6bca6040518163ffffffff1660e01b8152600401600060405180830381600087803b158015610c6457600080fd5b505af1158015610c78573d6000803e3d6000fd5b5050600480546040516370a0823160e01b8152600094506001600160a01b0390911692506370a0823191610cae91309101610de7565b602060405180830381865afa158015610ccb573d6000803e3d6000fd5b505050506040513d601f19601f82011682018060405250810190610cef9190610ea1565b6004805460035460405163a9059cbb60e01b81529394506001600160a01b039182169363a9059cbb93610d289390921691869101610e66565b6020604051808303816000875af1158015610d47573d6000803e3d6000fd5b505050506040513d601f19601f82011682018060405250810190610d6b9190610e7f565b61040f5760405162461bcd60e51b8152602060048201526014602482015273109554d108151c985b9cd9995c8811985a5b195960621b6044820152606401610331565b6001600160a01b038116811461040f57600080fd5b600060208284031215610dd557600080fd5b8135610de081610dae565b9392505050565b6001600160a01b0391909116815260200190565b600060208284031215610e0d57600080fd5b5035919050565b6020808252600b908201526a085055551213d49256915160aa1b604082015260600190565b634e487b7160e01b600052601160045260246000fd5b600082821015610e6157610e61610e39565b500390565b6001600160a01b03929092168252602082015260400190565b600060208284031215610e9157600080fd5b81518015158114610de057600080fd5b600060208284031215610eb357600080fd5b5051919050565b6000816000190483118215151615610ed457610ed4610e39565b500290565b60208082526006908201526510a7aba722a960d11b604082015260600190565b60008219821115610f0c57610f0c610e39565b50019056fea2646970667358221220f5b7ef6c9fdb2d100cd3439fad6e1d961205a95287654b6280b2c110cf2c522864736f6c634300080c0033a264697066735822122061bc79acda3ae93e3e07101b2d9e069dd6e744decf713b89a433856e5c64d4cd64736f6c634300080c0033",
  "immutableReferences": {},
  "source": "// SPDX-License-Identifier: MIT\r\npragma solidity ^0.8.10;\r\n\r\nimport \"./Auth.sol\";\r\nimport \"./IStacked.sol\";\r\nimport \"./IERC20.sol\";\r\n\r\ncontract StackedPrivateSaleVestingInstance is Auth {\r\n\r\n    IStacked stacked;\r\n\r\n    address public beneficiary;\r\n    address public BUSD = 0xe9e7CEA3DedcA5984780Bafc599bD69ADd087D56;\r\n\r\n    uint public start;\r\n    uint public basisPoints = 10000;\r\n    uint public totalVested;\r\n    uint public totalClaimed;\r\n    uint public oneDay = 86400;\r\n\r\n    bool public started;\r\n\r\n    mapping(uint => uint) public vestingAmounts;\r\n\r\n    constructor(address _stacked, uint _totalVesting, address _beneficiary) Auth(msg.sender) {\r\n        beneficiary = _beneficiary;\r\n        stacked = IStacked(_stacked);\r\n        totalVested = _totalVesting;\r\n        vestingAmounts[0] = (1500 * _totalVesting) / 10000;\r\n        vestingAmounts[1] = (3000 * _totalVesting) / 10000;\r\n        vestingAmounts[2] = (4500 * _totalVesting) / 10000;\r\n        vestingAmounts[3] = (6000 * _totalVesting) / 10000;\r\n        vestingAmounts[4] = (7500 * _totalVesting) / 10000;\r\n        vestingAmounts[5] = _totalVesting;\r\n    }\r\n\r\n    function startVesting() external authorized {\r\n        start = block.timestamp;\r\n        started = true;\r\n    }\r\n\r\n    function _claimStacked() internal {\r\n        _claimBUSD();\r\n        uint owed = getClaimableAmount();\r\n        totalClaimed += owed;\r\n        require(stacked.transfer(beneficiary, owed), \"Stacked Transfer Failed\");\r\n    }\r\n\r\n    function claimStacked() external authorized {\r\n        _claimStacked();\r\n    }\r\n\r\n    function getClaimableAmount() public view returns (uint) {\r\n        if (block.timestamp - start >= 180 * oneDay) {\r\n            return totalVested - totalClaimed;\r\n        }\r\n        else if (block.timestamp - start >= 150 * oneDay) {\r\n            return vestingAmounts[4] - totalClaimed;\r\n        }\r\n        else if (block.timestamp - start >= 120 * oneDay) {\r\n            return vestingAmounts[3] - totalClaimed;\r\n        }\r\n        else if (block.timestamp - start >= 90 * oneDay) {\r\n            return vestingAmounts[2] - totalClaimed;\r\n        }\r\n        else if (block.timestamp - start >= 60 * oneDay) {\r\n            return vestingAmounts[1] - totalClaimed;\r\n        }\r\n        else if (block.timestamp - start >= 30 * oneDay) {\r\n            return vestingAmounts[0] - totalClaimed;\r\n        }\r\n        else {\r\n            return 0;\r\n        }\r\n    }\r\n\r\n    function getOwedBUSD() external view returns(uint) {\r\n        return IERC20(BUSD).balanceOf(address(this));\r\n    }\r\n\r\n    function _claimBUSD() internal {\r\n        stacked.claimDividend();\r\n        uint balance = IERC20(BUSD).balanceOf(address(this));\r\n        require(IERC20(BUSD).transfer(beneficiary, balance), \"BUSD Transfer Failed\");\r\n    }\r\n\r\n    function claimBUSD() external authorized {\r\n        _claimBUSD();\r\n    }\r\n\r\n    function changeBeneficiaryAddress(address newBeneficiary) external authorized {\r\n        beneficiary = newBeneficiary;\r\n    }\r\n\r\n    function emergencyWithdrawERC20(address _token) external authorized {\r\n        require(_token != address(stacked) && _token != BUSD, \"Please use the specified claim functons for stacked and BUSD\");\r\n        require(IERC20(_token).transfer(owner, IERC20(_token).balanceOf(address(this))), \"Emergency withdrawal failed\");\r\n    }\r\n\r\n    function cancelVesting() external authorized {\r\n        _claimStacked();\r\n        uint remaining = totalVested - totalClaimed;\r\n        require(stacked.transfer(owner, remaining), \"Withdrawal Failed\");\r\n    }\r\n\r\n    function getAllAmounts() external view returns(uint total, uint claimed, uint owed) {\r\n        total = totalVested;\r\n        claimed = totalClaimed;\r\n        owed = getClaimableAmount();\r\n        return (total, claimed, owed);\r\n    }\r\n\r\n    // TEST\r\n    function timePassed() external view returns(uint, uint, bool) {\r\n        uint time =  block.timestamp - start;\r\n        bool temp;\r\n        uint owed = vestingAmounts[0];\r\n        if (block.timestamp - start >= 30 * oneDay) {\r\n            temp = true;\r\n        }\r\n        return (time, owed, temp);\r\n    }\r\n\r\n}\r\n\r\ncontract StackedPrivateSaleVestingManager is Auth {\r\n\r\n    // 6 month vesting rate\r\n    // month 1-5, 15% each month\r\n    // month 6, 25%\r\n    // no transfer fee upon withdrawal (exclude from fee on stacked contract)\r\n\r\n    IStacked stacked;\r\n    mapping(address => bool) public isBeneficiary;\r\n    mapping(address => StackedPrivateSaleVestingInstance) public vestingInstances;\r\n    StackedPrivateSaleVestingInstance[] instancesList;\r\n\r\n    // TODO: Do we need this?\r\n    modifier onlyBeneficiary {\r\n        require(isBeneficiary[msg.sender], \"You are not a beneficiary\");\r\n        _;\r\n    }\r\n\r\n    constructor(address _stacked) Auth(msg.sender) {\r\n        stacked = IStacked(_stacked);\r\n    }\r\n\r\n    function authorizeInstance(address _instanceAddress, address _authorizedAddress) external authorized {\r\n        StackedPrivateSaleVestingInstance instance = StackedPrivateSaleVestingInstance(_instanceAddress);\r\n        instance.authorize(_authorizedAddress);\r\n    }\r\n\r\n    function processInstance(address user) external authorized {\r\n        StackedPrivateSaleVestingInstance instance = vestingInstances[user];\r\n        instance.claimStacked();\r\n    }\r\n\r\n    function getAllInstances() external view returns(StackedPrivateSaleVestingInstance[] memory) {\r\n        return instancesList;\r\n    }\r\n\r\n    function getAllAmountsForUser(address user) external view returns (uint, uint, uint){\r\n        StackedPrivateSaleVestingInstance instance = vestingInstances[user];\r\n        return instance.getAllAmounts();\r\n    }\r\n\r\n    function processMultipleInstances(uint start, uint end) external authorized {\r\n        for (uint i = start; i <= end; i++) {\r\n            StackedPrivateSaleVestingInstance instance = instancesList[i];\r\n            instance.claimStacked();\r\n        }\r\n    }\r\n\r\n    function cancelVestingInstance(address instanceAddress) external authorized {\r\n        StackedPrivateSaleVestingInstance instance = StackedPrivateSaleVestingInstance(instanceAddress);\r\n        instance.cancelVesting();\r\n    }\r\n\r\n    function withdrawERC20(address token, address to, uint amount) external authorized {\r\n        if (amount == 0) {\r\n            amount = IERC20(token).balanceOf(address(this));\r\n        }\r\n        require(IERC20(token).transfer(to, amount), \"Transfer Failed\");\r\n    }\r\n\r\n    function processOwedBUSD(address user) external {\r\n        StackedPrivateSaleVestingInstance instance = vestingInstances[user];\r\n        instance.claimBUSD();\r\n    }\r\n\r\n    function processMultipleOwedBUSD(uint start, uint end) external authorized {\r\n        for (uint i = start; i <= end; i++) {\r\n            StackedPrivateSaleVestingInstance instance = instancesList[i];\r\n            instance.claimBUSD();\r\n        }\r\n    }\r\n\r\n    function _startVesting(StackedPrivateSaleVestingInstance instance) internal {\r\n        instance.startVesting();\r\n    }\r\n\r\n    function startSingleVesting(StackedPrivateSaleVestingInstance instance) external authorized {\r\n        _startVesting(instance);\r\n    }\r\n\r\n    function startMultipleVesting(uint start, uint end) external authorized {\r\n        for (uint i = start; i <= end; i++) {\r\n            StackedPrivateSaleVestingInstance instance = instancesList[i];\r\n            _startVesting(instance);\r\n        }\r\n    }\r\n\r\n    function createVestingInstance(address beneficiary, uint amount) external authorized {\r\n        StackedPrivateSaleVestingInstance newInstance = new StackedPrivateSaleVestingInstance(address(stacked), amount, beneficiary);\r\n        instancesList.push(newInstance);\r\n        vestingInstances[beneficiary] = newInstance;\r\n        require(stacked.transferFrom(msg.sender, address(newInstance), amount), \"Stacked Transfer Failed\");\r\n    }\r\n\r\n}\r\n",
  "sourcePath": "C:\\Users\\Graham\\Desktop\\StackedFinance\\contracts\\StackedPrivateVesting.sol",
  "compiler": {
    "name": "solc",
    "version": "0.8.12+commit.f00d7308.Emscripten.clang"
  },
  "schemaVersion": "3.4.6",
  "updatedAt": "2022-04-05T17:29:19.275Z",
  "devdoc": {
    "kind": "dev",
    "methods": {},
    "version": 1
  },
  "userdoc": {
    "kind": "user",
    "methods": {},
    "version": 1
  }
}