{
  "contractName": "StackdStaking",
  "abi": [
    {
      "inputs": [
        {
          "internalType": "address",
          "name": "_STACKD",
          "type": "address"
        },
        {
          "internalType": "address",
          "name": "_XSTACKD",
          "type": "address"
        },
        {
          "internalType": "address",
          "name": "_staking_wallet",
          "type": "address"
        }
      ],
      "stateMutability": "nonpayable",
      "type": "constructor"
    },
    {
      "anonymous": false,
      "inputs": [
        {
          "indexed": true,
          "internalType": "address",
          "name": "previousOwner",
          "type": "address"
        },
        {
          "indexed": true,
          "internalType": "address",
          "name": "newOwner",
          "type": "address"
        }
      ],
      "name": "OwnershipTransferred",
      "type": "event"
    },
    {
      "inputs": [],
      "name": "DENOMINATOR",
      "outputs": [
        {
          "internalType": "uint256",
          "name": "",
          "type": "uint256"
        }
      ],
      "stateMutability": "view",
      "type": "function"
    },
    {
      "inputs": [],
      "name": "STACKD",
      "outputs": [
        {
          "internalType": "address",
          "name": "",
          "type": "address"
        }
      ],
      "stateMutability": "view",
      "type": "function"
    },
    {
      "inputs": [],
      "name": "XSTACKD",
      "outputs": [
        {
          "internalType": "address",
          "name": "",
          "type": "address"
        }
      ],
      "stateMutability": "view",
      "type": "function"
    },
    {
      "inputs": [
        {
          "internalType": "uint256",
          "name": "",
          "type": "uint256"
        }
      ],
      "name": "active_pools",
      "outputs": [
        {
          "internalType": "uint256",
          "name": "",
          "type": "uint256"
        }
      ],
      "stateMutability": "view",
      "type": "function"
    },
    {
      "inputs": [
        {
          "internalType": "uint256",
          "name": "",
          "type": "uint256"
        }
      ],
      "name": "all_pools",
      "outputs": [
        {
          "internalType": "uint256",
          "name": "duration",
          "type": "uint256"
        },
        {
          "internalType": "uint256",
          "name": "total_stackd",
          "type": "uint256"
        },
        {
          "internalType": "uint256",
          "name": "total_x_stackd",
          "type": "uint256"
        },
        {
          "internalType": "uint256",
          "name": "total_deposited",
          "type": "uint256"
        },
        {
          "internalType": "uint256",
          "name": "wallet_max_stake",
          "type": "uint256"
        },
        {
          "internalType": "uint256",
          "name": "id",
          "type": "uint256"
        },
        {
          "internalType": "uint256",
          "name": "stackd_rate",
          "type": "uint256"
        },
        {
          "internalType": "uint256",
          "name": "x_stackd_rate",
          "type": "uint256"
        },
        {
          "internalType": "uint256",
          "name": "penalty",
          "type": "uint256"
        }
      ],
      "stateMutability": "view",
      "type": "function"
    },
    {
      "inputs": [
        {
          "internalType": "uint256",
          "name": "",
          "type": "uint256"
        }
      ],
      "name": "empty_pools",
      "outputs": [
        {
          "internalType": "uint256",
          "name": "",
          "type": "uint256"
        }
      ],
      "stateMutability": "view",
      "type": "function"
    },
    {
      "inputs": [],
      "name": "owner",
      "outputs": [
        {
          "internalType": "address",
          "name": "",
          "type": "address"
        }
      ],
      "stateMutability": "view",
      "type": "function"
    },
    {
      "inputs": [],
      "name": "pool_index",
      "outputs": [
        {
          "internalType": "uint256",
          "name": "_value",
          "type": "uint256"
        }
      ],
      "stateMutability": "view",
      "type": "function"
    },
    {
      "inputs": [],
      "name": "renounceOwnership",
      "outputs": [],
      "stateMutability": "nonpayable",
      "type": "function"
    },
    {
      "inputs": [],
      "name": "staking_wallet",
      "outputs": [
        {
          "internalType": "address",
          "name": "",
          "type": "address"
        }
      ],
      "stateMutability": "view",
      "type": "function"
    },
    {
      "inputs": [
        {
          "internalType": "address",
          "name": "newOwner",
          "type": "address"
        }
      ],
      "name": "transferOwnership",
      "outputs": [],
      "stateMutability": "nonpayable",
      "type": "function"
    },
    {
      "inputs": [
        {
          "internalType": "address",
          "name": "",
          "type": "address"
        },
        {
          "internalType": "uint256",
          "name": "",
          "type": "uint256"
        }
      ],
      "name": "user_stakes",
      "outputs": [
        {
          "internalType": "uint256",
          "name": "amount",
          "type": "uint256"
        },
        {
          "internalType": "uint256",
          "name": "start",
          "type": "uint256"
        },
        {
          "internalType": "uint256",
          "name": "end",
          "type": "uint256"
        },
        {
          "internalType": "uint256",
          "name": "stackd_owed",
          "type": "uint256"
        },
        {
          "internalType": "uint256",
          "name": "x_stackd_owed",
          "type": "uint256"
        },
        {
          "internalType": "uint256",
          "name": "pool",
          "type": "uint256"
        }
      ],
      "stateMutability": "view",
      "type": "function"
    },
    {
      "inputs": [],
      "name": "getActivePools",
      "outputs": [
        {
          "internalType": "uint256[]",
          "name": "",
          "type": "uint256[]"
        }
      ],
      "stateMutability": "view",
      "type": "function"
    },
    {
      "inputs": [
        {
          "internalType": "address",
          "name": "user",
          "type": "address"
        }
      ],
      "name": "getUserStakes",
      "outputs": [
        {
          "components": [
            {
              "internalType": "uint256",
              "name": "amount",
              "type": "uint256"
            },
            {
              "internalType": "uint256",
              "name": "start",
              "type": "uint256"
            },
            {
              "internalType": "uint256",
              "name": "end",
              "type": "uint256"
            },
            {
              "internalType": "uint256",
              "name": "stackd_owed",
              "type": "uint256"
            },
            {
              "internalType": "uint256",
              "name": "x_stackd_owed",
              "type": "uint256"
            },
            {
              "internalType": "uint256",
              "name": "pool",
              "type": "uint256"
            }
          ],
          "internalType": "struct StackdStaking.stake[]",
          "name": "",
          "type": "tuple[]"
        }
      ],
      "stateMutability": "view",
      "type": "function"
    },
    {
      "inputs": [
        {
          "internalType": "uint256",
          "name": "_duration",
          "type": "uint256"
        },
        {
          "internalType": "uint256",
          "name": "_total_x_stackd",
          "type": "uint256"
        },
        {
          "internalType": "uint256",
          "name": "_total_stackd",
          "type": "uint256"
        },
        {
          "internalType": "uint256",
          "name": "_wallet_max_stake",
          "type": "uint256"
        },
        {
          "internalType": "uint256",
          "name": "_stackd_rate",
          "type": "uint256"
        },
        {
          "internalType": "uint256",
          "name": "_x_stackd_rate",
          "type": "uint256"
        },
        {
          "internalType": "uint256",
          "name": "_penalty",
          "type": "uint256"
        }
      ],
      "name": "createPool",
      "outputs": [],
      "stateMutability": "nonpayable",
      "type": "function"
    },
    {
      "inputs": [
        {
          "internalType": "uint256",
          "name": "poolId",
          "type": "uint256"
        },
        {
          "internalType": "uint256",
          "name": "stake_amount",
          "type": "uint256"
        }
      ],
      "name": "createStake",
      "outputs": [],
      "stateMutability": "nonpayable",
      "type": "function"
    },
    {
      "inputs": [
        {
          "internalType": "uint256",
          "name": "stakeIndex",
          "type": "uint256"
        }
      ],
      "name": "claim",
      "outputs": [],
      "stateMutability": "nonpayable",
      "type": "function"
    },
    {
      "inputs": [
        {
          "internalType": "uint256",
          "name": "stakeIndex",
          "type": "uint256"
        }
      ],
      "name": "emergencyWithdraw",
      "outputs": [],
      "stateMutability": "nonpayable",
      "type": "function"
    },
    {
      "inputs": [
        {
          "internalType": "address",
          "name": "user",
          "type": "address"
        }
      ],
      "name": "stakedTokens",
      "outputs": [
        {
          "internalType": "uint256",
          "name": "",
          "type": "uint256"
        }
      ],
      "stateMutability": "view",
      "type": "function"
    }
  ],
  "bytecode": "0x60806040523480156200001157600080fd5b5060405162001893380380620018938339810160408190526200003491620000df565b6200003f3362000072565b50600280546001600160a01b039384166001600160a01b0319918216179091556003805492909316911617905562000129565b600080546001600160a01b038381166001600160a01b0319831681178455604051919092169283917f8be0079c531659141344cd1fd0a4f28419497f9722a3daafe3b4186f6b6457e09190a35050565b80516001600160a01b0381168114620000da57600080fd5b919050565b600080600060608486031215620000f557600080fd5b6200010084620000c2565b92506200011060208501620000c2565b91506200012060408501620000c2565b90509250925092565b61175a80620001396000396000f3fe608060405234801561001057600080fd5b50600436106101115760003560e01c8063918f8674116100ad578063d7fa023d11610071578063d7fa023d146102f2578063daa2058814610305578063eae7fc2d14610318578063f0188a201461032b578063f2fde38b1461033e57600080fd5b8063918f867414610210578063a5b39cfb14610219578063b047d4981461022c578063c5668b771461023f578063d338e7b9146102df57600080fd5b8063379607f5146101165780634265487b1461012b5780635312ea8e14610151578063715018a614610164578063800a85e81461016c578063842e2981146101ac5780638da5cb5b146101cc5780638ec08354146101f15780638fff467614610206575b600080fd5b6101296101243660046113ff565b610351565b005b61013e6101393660046113ff565b6106bc565b6040519081526020015b60405180910390f35b61012961015f3660046113ff565b6106dd565b6101296109a1565b61017f61017a366004611434565b6109d7565b604080519687526020870195909552938501929092526060840152608083015260a082015260c001610148565b6101bf6101ba36600461145e565b610a2b565b6040516101489190611480565b6000546001600160a01b03165b6040516001600160a01b039091168152602001610148565b6101f9610adc565b60405161014891906114f8565b60015461013e9081565b61013e61271081565b61013e61022736600461145e565b610b34565b61013e61023a3660046113ff565b610c46565b61029b61024d3660046113ff565b60076020528060005260406000206000915090508060000154908060010154908060020154908060030154908060040154908060050154908060060154908060070154908060080154905089565b60408051998a5260208a0198909852968801959095526060870193909352608086019190915260a085015260c084015260e083015261010082015261012001610148565b6101296102ed36600461153c565b610c56565b610129610300366004611588565b610eb6565b6002546101d9906001600160a01b031681565b6004546101d9906001600160a01b031681565b6003546101d9906001600160a01b031681565b61012961034c36600461145e565b611314565b336000908152600860205260408120805483908110610372576103726115aa565b90600052602060002090600602016040518060c00160405290816000820154815260200160018201548152602001600282015481526020016003820154815260200160048201548152602001600582015481525050905080604001514210156104225760405162461bcd60e51b815260206004820152601f60248201527f5374616b696e6720706572696f6420686173206e6f742066696e69736865640060448201526064015b60405180910390fd5b336000908152600860205260409020805461043f906001906115d6565b8154811061044f5761044f6115aa565b906000526020600020906006020160086000336001600160a01b03166001600160a01b031681526020019081526020016000208381548110610493576104936115aa565b6000918252602080832084546006909302019182556001808501549083015560028085015490830155600380850154908301556004808501549083015560059384015493909101929092553381526008909152604090208054806104f9576104f96115ed565b600082815260208120600660001990930192830201818155600181018290556002808201839055600382018390556004808301849055600590920192909255919092559054606083015160405163a9059cbb60e01b81526001600160a01b039092169263a9059cbb92610570923392909101611603565b6020604051808303816000875af115801561058f573d6000803e3d6000fd5b505050506040513d601f19601f820116820180604052508101906105b3919061161c565b6105f85760405162461bcd60e51b815260206004820152601660248201527514dd1858dad908151c985b9cd9995c8811985a5b195960521b6044820152606401610419565b600354608082015160405163a9059cbb60e01b81526001600160a01b039092169163a9059cbb9161062e91339190600401611603565b6020604051808303816000875af115801561064d573d6000803e3d6000fd5b505050506040513d601f19601f82011682018060405250810190610671919061161c565b6106b85760405162461bcd60e51b81526020600482015260186024820152771614dd1858dad959081d1c985b9cd9995c8819985a5b195960421b6044820152606401610419565b5050565b600681815481106106cc57600080fd5b600091825260209091200154905081565b3360009081526008602052604081208054839081106106fe576106fe6115aa565b90600052602060002090600602016040518060c00160405290816000820154815260200160018201548152602001600282015481526020016003820154815260200160048201548152602001600582015481525050905080604001514210610769576106b882610351565b3360009081526008602052604090208054610786906001906115d6565b81548110610796576107966115aa565b906000526020600020906006020160086000336001600160a01b03166001600160a01b0316815260200190815260200160002083815481106107da576107da6115aa565b600091825260208083208454600690930201918255600180850154908301556002808501549083015560038085015490830155600480850154908301556005938401549390910192909255338152600890915260409020805480610840576108406115ed565b60008281526020808220600660001990940193840201828155600181018390556002810183905560038101839055600481018390556005018290559190925560a083015182526007905260408120600801548251612710916108a19161163e565b6108ab919061165d565b600254600480546040516323b872dd60e01b81529394506001600160a01b03928316936323b872dd936108e69333939091169187910161167f565b6020604051808303816000875af1158015610905573d6000803e3d6000fd5b505050506040513d601f19601f82011682018060405250810190610929919061161c565b61096f5760405162461bcd60e51b815260206004820152601760248201527614195b985b1d1e48151c985b9cd9995c8811985a5b1959604a1b6044820152606401610419565b815160a0830151600090815260076020526040812060030180549091906109979084906115d6565b9091555050505050565b6000546001600160a01b031633146109cb5760405162461bcd60e51b8152600401610419906116a3565b6109d560006113af565b565b600860205281600052604060002081815481106109f357600080fd5b600091825260209091206006909102018054600182015460028301546003840154600485015460059095015493965091945092909186565b6001600160a01b0381166000908152600860209081526040808320805482518185028101850190935280835260609492939192909184015b82821015610ad157838290600052602060002090600602016040518060c0016040529081600082015481526020016001820154815260200160028201548152602001600382015481526020016004820154815260200160058201548152505081526020019060010190610a63565b505050509050919050565b60606005805480602002602001604051908101604052809291908181526020018280548015610b2a57602002820191906000526020600020905b815481526020019060010190808311610b16575b5050505050905090565b6001600160a01b0381166000908152600860209081526040808320805482518185028101850190935280835284938493929190849084015b82821015610bda57838290600052602060002090600602016040518060c0016040529081600082015481526020016001820154815260200160028201548152602001600382015481526020016004820154815260200160058201548152505081526020019060010190610b6c565b505050509050805160001415610bf4575060009392505050565b60005b8151811015610c3d57818181518110610c1257610c126115aa565b60200260200101516000015183610c2991906116d8565b925080610c35816116f0565b915050610bf7565b50909392505050565b600581815481106106cc57600080fd5b6000546001600160a01b03163314610c805760405162461bcd60e51b8152600401610419906116a3565b6002546040516323b872dd60e01b81526001600160a01b03909116906323b872dd90610cb490339030908a9060040161167f565b6020604051808303816000875af1158015610cd3573d6000803e3d6000fd5b505050506040513d601f19601f82011682018060405250810190610cf7919061161c565b610d345760405162461bcd60e51b815260206004820152600e60248201526d119d5b991a5b99c819985a5b195960921b6044820152606401610419565b6003546040516340c10f1960e01b81526001600160a01b03909116906340c10f1990610d669030908a90600401611603565b600060405180830381600087803b158015610d8057600080fd5b505af1158015610d94573d6000803e3d6000fd5b50505050610de76040518061012001604052806000815260200160008152602001600081526020016000815260200160008152602001600081526020016000815260200160008152602001600081525090565b87815260208101869052604081018790526080810185905260015460a082015260c0810184905260e0810183905261010081018290526005610e2860015490565b8154600180820184556000938452602080852090920192909255815483526007808252604093849020855181559185015182840155928401516002820155606084015160038201556080840151600482015560a0840151600582015560c0840151600682015560e0840151928101929092556101009092015160089091015580548101905550505050505050565b80610ec033610b34565b6002546040516370a0823160e01b81523360048201526001600160a01b03909116906370a0823190602401602060405180830381865afa158015610f08573d6000803e3d6000fd5b505050506040513d601f19601f82011682018060405250810190610f2c919061170b565b610f3691906115d6565b1015610f845760405162461bcd60e51b815260206004820152601a60248201527f4e6f7420656e6f75676820756e7374616b656420746f6b656e730000000000006044820152606401610419565b33600090815260086020908152604080832080548251818502810185019093528083529192909190849084015b8282101561101f57838290600052602060002090600602016040518060c0016040529081600082015481526020016001820154815260200160028201548152602001600382015481526020016004820154815260200160058201548152505081526020019060010190610fb1565b505050509050600080825111156110a15760005b825181101561109f578483828151811061104f5761104f6115aa565b602002602001015160a00151141561108d57828181518110611073576110736115aa565b6020026020010151600001518261108a91906116d8565b91505b80611097816116f0565b915050611033565b505b6000848152600760208181526040928390208351610120810185528154815260018201549281019290925260028101549382019390935260038301546060820152600483015460808201819052600584015460a0830152600684015460c08301529183015460e082015260089092015461010083015261112185846116d8565b111561116f5760405162461bcd60e51b815260206004820152601e60248201527f4f76657220506f6f6c2057616c6c6574205374616b696e67204c696d697400006044820152606401610419565b80602001516127108260c0015186846060015161118c91906116d8565b611196919061163e565b6111a0919061165d565b11156111e95760405162461bcd60e51b8152602060048201526018602482015277139bdd08195b9bdd59da081cdc1858d9481a5b881c1bdbdb60421b6044820152606401610419565b6000858152600760205260408120600301805486929061120a9084906116d8565b9250508190555061124a6040518060c001604052806000815260200160008152602001600081526020016000815260200160008152602001600081525090565b84815242602082018190528251611260916116d8565b604082015260c082015161271090611278908761163e565b611282919061165d565b606082015260e08201516127109061129a908761163e565b6112a4919061165d565b6080820190815260a08201968752336000908152600860209081526040808320805460018181018355918552938390208651600690950201938455918501519183019190915583015160028201556060909201516003830155516004820155945160059095019490945550505050565b6000546001600160a01b0316331461133e5760405162461bcd60e51b8152600401610419906116a3565b6001600160a01b0381166113a35760405162461bcd60e51b815260206004820152602660248201527f4f776e61626c653a206e6577206f776e657220697320746865207a65726f206160448201526564647265737360d01b6064820152608401610419565b6113ac816113af565b50565b600080546001600160a01b038381166001600160a01b0319831681178455604051919092169283917f8be0079c531659141344cd1fd0a4f28419497f9722a3daafe3b4186f6b6457e09190a35050565b60006020828403121561141157600080fd5b5035919050565b80356001600160a01b038116811461142f57600080fd5b919050565b6000806040838503121561144757600080fd5b61145083611418565b946020939093013593505050565b60006020828403121561147057600080fd5b61147982611418565b9392505050565b602080825282518282018190526000919060409081850190868401855b828110156114eb5781518051855286810151878601528581015186860152606080820151908601526080808201519086015260a0908101519085015260c0909301929085019060010161149d565b5091979650505050505050565b6020808252825182820181905260009190848201906040850190845b8181101561153057835183529284019291840191600101611514565b50909695505050505050565b600080600080600080600060e0888a03121561155757600080fd5b505085359760208701359750604087013596606081013596506080810135955060a0810135945060c0013592509050565b6000806040838503121561159b57600080fd5b50508035926020909101359150565b634e487b7160e01b600052603260045260246000fd5b634e487b7160e01b600052601160045260246000fd5b6000828210156115e8576115e86115c0565b500390565b634e487b7160e01b600052603160045260246000fd5b6001600160a01b03929092168252602082015260400190565b60006020828403121561162e57600080fd5b8151801515811461147957600080fd5b6000816000190483118215151615611658576116586115c0565b500290565b60008261167a57634e487b7160e01b600052601260045260246000fd5b500490565b6001600160a01b039384168152919092166020820152604081019190915260600190565b6020808252818101527f4f776e61626c653a2063616c6c6572206973206e6f7420746865206f776e6572604082015260600190565b600082198211156116eb576116eb6115c0565b500190565b6000600019821415611704576117046115c0565b5060010190565b60006020828403121561171d57600080fd5b505191905056fea2646970667358221220eccf5be7de196c7665004d75bb788f6cad6919bd1c498e36501be544e28980b264736f6c634300080c0033",
  "immutableReferences": {},
  "source": "// SPDX-License-Identifier: MIT\r\npragma solidity >=0.8.0 <0.9.0;\r\n\r\nimport \"@openzeppelin/contracts/token/ERC20/IERC20.sol\";\r\nimport \"@openzeppelin/contracts/token/ERC20/presets/ERC20PresetMinterPauser.sol\";\r\nimport \"@openzeppelin/contracts/access/Ownable.sol\";\r\nimport \"@openzeppelin/contracts/utils/Counters.sol\";\r\n\r\ncontract StackdStaking is Ownable {\r\n    using Counters for Counters.Counter;\r\n\r\n    struct pool {\r\n        uint duration;\r\n        uint total_stackd;\r\n        uint total_x_stackd;\r\n        uint total_deposited;\r\n        uint wallet_max_stake;\r\n        uint id;\r\n        uint stackd_rate;\r\n        uint x_stackd_rate;\r\n        uint penalty;\r\n    }\r\n\r\n    struct stake {\r\n        uint amount;\r\n        uint start;\r\n        uint end;\r\n        uint stackd_owed;\r\n        uint x_stackd_owed;\r\n        uint pool;\r\n    }\r\n\r\n    Counters.Counter public pool_index;\r\n\r\n    address public STACKD;\r\n    address public XSTACKD;\r\n    address public staking_wallet;\r\n\r\n    uint public constant DENOMINATOR = 10000;\r\n\r\n    uint[] public active_pools;\r\n\r\n    uint[] public empty_pools;\r\n\r\n    mapping(uint => pool) public all_pools;\r\n    mapping(address => stake[]) public user_stakes;\r\n\r\n\r\n    constructor(address _STACKD, address _XSTACKD, address _staking_wallet) {\r\n        STACKD = _STACKD;\r\n        XSTACKD = _XSTACKD;\r\n    }\r\n\r\n    function getActivePools() external view returns(uint[] memory) {\r\n        return active_pools;\r\n    }\r\n\r\n    function getUserStakes(address user) external view returns(stake[] memory) {\r\n        return user_stakes[user];\r\n    }\r\n\r\n    function createPool(uint _duration, uint _total_x_stackd, uint _total_stackd, uint _wallet_max_stake, uint _stackd_rate, uint _x_stackd_rate, uint _penalty) external onlyOwner {\r\n        // Transfer & Mint Rewards\r\n        require(IERC20(STACKD).transferFrom(msg.sender, address(this), _total_stackd), \"Funding failed\");\r\n        ERC20PresetMinterPauser(XSTACKD).mint(address(this), _total_x_stackd);\r\n\r\n        // Set Pool\r\n        pool memory newPool;\r\n        newPool.duration = _duration;\r\n        newPool.total_stackd = _total_stackd;\r\n        newPool.total_x_stackd = _total_x_stackd;\r\n        newPool.wallet_max_stake = _wallet_max_stake;\r\n        newPool.id = pool_index.current();\r\n        newPool.stackd_rate = _stackd_rate;\r\n        newPool.x_stackd_rate = _x_stackd_rate;\r\n        newPool.penalty = _penalty;\r\n\r\n        active_pools.push(pool_index.current());\r\n        all_pools[pool_index.current()] = newPool;\r\n\r\n        pool_index.increment();\r\n    }\r\n\r\n    function createStake(uint poolId, uint stake_amount) external {\r\n        require(IERC20(STACKD).balanceOf(msg.sender) - stakedTokens(msg.sender) >= stake_amount, \"Not enough unstaked tokens\");\r\n\r\n        stake[] memory existingStakes = user_stakes[msg.sender];\r\n        uint currentStake;\r\n        if (existingStakes.length > 0) {\r\n            for (uint i = 0; i < existingStakes.length; i++) {\r\n                if (existingStakes[i].pool == poolId) {\r\n                    currentStake += existingStakes[i].amount;\r\n                }\r\n            }\r\n        }\r\n\r\n        pool memory targetPool = all_pools[poolId];\r\n        require(currentStake + stake_amount <= targetPool.wallet_max_stake, \"Over Pool Wallet Staking Limit\");\r\n        require(((targetPool.total_deposited + stake_amount) * targetPool.stackd_rate) / 10000 <= targetPool.total_stackd, \"Not enough space in pool\");\r\n        all_pools[poolId].total_deposited += stake_amount;\r\n\r\n        // Set Stake\r\n        stake memory newStake;\r\n        newStake.amount = stake_amount;\r\n        newStake.start = block.timestamp;\r\n        newStake.end = block.timestamp + targetPool.duration;\r\n        newStake.stackd_owed = (stake_amount * targetPool.stackd_rate) / DENOMINATOR;\r\n        newStake.x_stackd_owed = (stake_amount * targetPool.x_stackd_rate) / DENOMINATOR;\r\n        newStake.pool = poolId;\r\n\r\n        user_stakes[msg.sender].push(newStake);\r\n    }\r\n\r\n\r\n    function claim(uint stakeIndex) public {\r\n        stake memory userStake = user_stakes[msg.sender][stakeIndex];\r\n        require(block.timestamp >= userStake.end, \"Staking period has not finished\");\r\n\r\n        // Remove stake\r\n        user_stakes[msg.sender][stakeIndex] = user_stakes[msg.sender][user_stakes[msg.sender].length - 1];\r\n        user_stakes[msg.sender].pop();\r\n\r\n        // Transfer Rewards\r\n        require(IERC20(STACKD).transfer(msg.sender, userStake.stackd_owed), \"Stackd Transfer Failed\");\r\n        require(ERC20PresetMinterPauser(XSTACKD).transfer(msg.sender, userStake.x_stackd_owed), \"XStacked transfer failed\");\r\n    }\r\n\r\n    function emergencyWithdraw(uint stakeIndex) external {\r\n        stake memory userStake = user_stakes[msg.sender][stakeIndex];\r\n        if (block.timestamp >= userStake.end) {\r\n            claim(stakeIndex);\r\n        }\r\n        else {\r\n            // Remove stake\r\n            user_stakes[msg.sender][stakeIndex] = user_stakes[msg.sender][user_stakes[msg.sender].length - 1];\r\n            user_stakes[msg.sender].pop();\r\n\r\n            // Take Penalty\r\n            uint penalty = (userStake.amount * all_pools[userStake.pool].penalty) / DENOMINATOR;\r\n            require(IERC20(STACKD).transferFrom(msg.sender, staking_wallet, penalty), \"Penalty Transfer Failed\");\r\n\r\n            // Didnt recieve rewards, remove from total pool deposit\r\n            all_pools[userStake.pool].total_deposited -= userStake.amount;\r\n        }\r\n    }\r\n\r\n\r\n    function stakedTokens(address user) public view returns (uint) {\r\n        uint totalStake;\r\n        stake[] memory existingStakes = user_stakes[user];\r\n        if (existingStakes.length == 0) {\r\n            return 0;\r\n        }\r\n        else {\r\n            for (uint i = 0; i < existingStakes.length; i++) {\r\n                totalStake += existingStakes[i].amount;\r\n            }\r\n            return totalStake;\r\n        }\r\n    }\r\n}\r\n",
  "sourcePath": "C:\\Users\\Graham\\Desktop\\StackedFinance\\contracts\\StackdStaking.sol",
  "compiler": {
    "name": "solc",
    "version": "0.8.12+commit.f00d7308.Emscripten.clang"
  },
  "schemaVersion": "3.4.6",
  "updatedAt": "2022-05-02T21:49:12.932Z",
  "devdoc": {
    "kind": "dev",
    "methods": {
      "owner()": {
        "details": "Returns the address of the current owner."
      },
      "renounceOwnership()": {
        "details": "Leaves the contract without owner. It will not be possible to call `onlyOwner` functions anymore. Can only be called by the current owner. NOTE: Renouncing ownership will leave the contract without an owner, thereby removing any functionality that is only available to the owner."
      },
      "transferOwnership(address)": {
        "details": "Transfers ownership of the contract to a new account (`newOwner`). Can only be called by the current owner."
      }
    },
    "version": 1
  },
  "userdoc": {
    "kind": "user",
    "methods": {},
    "version": 1
  }
}