{
  "contractName": "StackdTeamVestingInstance",
  "abi": [
    {
      "inputs": [
        {
          "internalType": "address",
          "name": "_stackd",
          "type": "address"
        },
        {
          "internalType": "uint256",
          "name": "_totalVesting",
          "type": "uint256"
        },
        {
          "internalType": "address",
          "name": "_beneficiary",
          "type": "address"
        }
      ],
      "stateMutability": "nonpayable",
      "type": "constructor"
    },
    {
      "anonymous": false,
      "inputs": [
        {
          "indexed": false,
          "internalType": "address",
          "name": "owner",
          "type": "address"
        }
      ],
      "name": "OwnershipTransferred",
      "type": "event"
    },
    {
      "inputs": [],
      "name": "BUSD",
      "outputs": [
        {
          "internalType": "address",
          "name": "",
          "type": "address"
        }
      ],
      "stateMutability": "view",
      "type": "function"
    },
    {
      "inputs": [
        {
          "internalType": "address",
          "name": "adr",
          "type": "address"
        }
      ],
      "name": "authorize",
      "outputs": [],
      "stateMutability": "nonpayable",
      "type": "function"
    },
    {
      "inputs": [],
      "name": "basisPoints",
      "outputs": [
        {
          "internalType": "uint256",
          "name": "",
          "type": "uint256"
        }
      ],
      "stateMutability": "view",
      "type": "function"
    },
    {
      "inputs": [],
      "name": "beneficiary",
      "outputs": [
        {
          "internalType": "address",
          "name": "",
          "type": "address"
        }
      ],
      "stateMutability": "view",
      "type": "function"
    },
    {
      "inputs": [
        {
          "internalType": "address",
          "name": "adr",
          "type": "address"
        }
      ],
      "name": "isAuthorized",
      "outputs": [
        {
          "internalType": "bool",
          "name": "",
          "type": "bool"
        }
      ],
      "stateMutability": "view",
      "type": "function"
    },
    {
      "inputs": [
        {
          "internalType": "address",
          "name": "account",
          "type": "address"
        }
      ],
      "name": "isOwner",
      "outputs": [
        {
          "internalType": "bool",
          "name": "",
          "type": "bool"
        }
      ],
      "stateMutability": "view",
      "type": "function"
    },
    {
      "inputs": [],
      "name": "oneWeek",
      "outputs": [
        {
          "internalType": "uint256",
          "name": "",
          "type": "uint256"
        }
      ],
      "stateMutability": "view",
      "type": "function"
    },
    {
      "inputs": [],
      "name": "start",
      "outputs": [
        {
          "internalType": "uint256",
          "name": "",
          "type": "uint256"
        }
      ],
      "stateMutability": "view",
      "type": "function"
    },
    {
      "inputs": [],
      "name": "started",
      "outputs": [
        {
          "internalType": "bool",
          "name": "",
          "type": "bool"
        }
      ],
      "stateMutability": "view",
      "type": "function"
    },
    {
      "inputs": [],
      "name": "totalClaimed",
      "outputs": [
        {
          "internalType": "uint256",
          "name": "",
          "type": "uint256"
        }
      ],
      "stateMutability": "view",
      "type": "function"
    },
    {
      "inputs": [],
      "name": "totalVested",
      "outputs": [
        {
          "internalType": "uint256",
          "name": "",
          "type": "uint256"
        }
      ],
      "stateMutability": "view",
      "type": "function"
    },
    {
      "inputs": [
        {
          "internalType": "address payable",
          "name": "adr",
          "type": "address"
        }
      ],
      "name": "transferOwnership",
      "outputs": [],
      "stateMutability": "nonpayable",
      "type": "function"
    },
    {
      "inputs": [
        {
          "internalType": "address",
          "name": "adr",
          "type": "address"
        }
      ],
      "name": "unauthorize",
      "outputs": [],
      "stateMutability": "nonpayable",
      "type": "function"
    },
    {
      "inputs": [],
      "name": "startVesting",
      "outputs": [],
      "stateMutability": "nonpayable",
      "type": "function"
    },
    {
      "inputs": [],
      "name": "claimStackd",
      "outputs": [],
      "stateMutability": "nonpayable",
      "type": "function"
    },
    {
      "inputs": [],
      "name": "getClaimableAmount",
      "outputs": [
        {
          "internalType": "uint256",
          "name": "",
          "type": "uint256"
        }
      ],
      "stateMutability": "view",
      "type": "function"
    },
    {
      "inputs": [],
      "name": "getOwedBUSD",
      "outputs": [
        {
          "internalType": "uint256",
          "name": "",
          "type": "uint256"
        }
      ],
      "stateMutability": "view",
      "type": "function"
    },
    {
      "inputs": [],
      "name": "claimBUSD",
      "outputs": [],
      "stateMutability": "nonpayable",
      "type": "function"
    },
    {
      "inputs": [
        {
          "internalType": "address",
          "name": "newBeneficiary",
          "type": "address"
        }
      ],
      "name": "changeBeneficiaryAddress",
      "outputs": [],
      "stateMutability": "nonpayable",
      "type": "function"
    },
    {
      "inputs": [
        {
          "internalType": "address",
          "name": "_token",
          "type": "address"
        }
      ],
      "name": "emergencyWithdrawERC20",
      "outputs": [],
      "stateMutability": "nonpayable",
      "type": "function"
    },
    {
      "inputs": [],
      "name": "cancelVesting",
      "outputs": [],
      "stateMutability": "nonpayable",
      "type": "function"
    },
    {
      "inputs": [],
      "name": "getAllAmounts",
      "outputs": [
        {
          "internalType": "uint256",
          "name": "total",
          "type": "uint256"
        },
        {
          "internalType": "uint256",
          "name": "claimed",
          "type": "uint256"
        },
        {
          "internalType": "uint256",
          "name": "owed",
          "type": "uint256"
        }
      ],
      "stateMutability": "view",
      "type": "function"
    }
  ],
  "bytecode": "0x6080604052600480546001600160a01b03191673e9e7cea3dedca5984780bafc599bd69add087d5617905561271060065562093a8060095534801561004357600080fd5b50604051610e22380380610e22833981016040819052610062916100db565b60008054336001600160a01b0319918216811783558252600160208190526040909220805460ff19169092179091556003805482166001600160a01b03938416179055600280549091169390911692909217909155600755610117565b80516001600160a01b03811681146100d657600080fd5b919050565b6000806000606084860312156100f057600080fd5b6100f9846100bf565b92506020840151915061010e604085016100bf565b90509250925092565b610cfc806101266000396000f3fe608060405234801561001057600080fd5b50600436106101425760003560e01c80637a791065116100b8578063caf14b951161007c578063caf14b9514610244578063d54ad2a114610267578063deb36e3214610270578063f0b37c0414610278578063f2fde38b1461028b578063fe9fbb801461029e57600080fd5b80637a79106514610210578063afb5799914610218578063b6a5d7de14610220578063be9a655514610233578063c354bd6e1461023c57600080fd5b806338af3eed1161010a57806338af3eed146101b057806340c442de146101d057806346c67843146101e3578063484f4ea9146101ec5780635fa2336a146101ff5780637a36afdb1461020857600080fd5b80630fee00ba1461014757806312d0e65a14610151578063199cbc54146101645780631f2698ab146101805780632f54bf6e1461019d575b600080fd5b61014f6102b1565b005b61014f61015f366004610b6f565b6103b7565b61016d60075481565b6040519081526020015b60405180910390f35b600a5461018d9060ff1681565b6040519015158152602001610177565b61018d6101ab366004610b6f565b6103fe565b6003546101c3906001600160a01b031681565b6040516101779190610b93565b61014f6101de366004610b6f565b610412565b61016d60095481565b6004546101c3906001600160a01b031681565b61016d60065481565b61014f6105fd565b61016d61062c565b61014f6106a4565b61014f61022e366004610b6f565b6106d1565b61016d60055481565b61016d61071d565b61024c61078f565b60408051938452602084019290925290820152606001610177565b61016d60085481565b61014f6107a6565b61014f610286366004610b6f565b6107de565b61014f610299366004610b6f565b610824565b61018d6102ac366004610b6f565b6108b9565b6102ba336108b9565b6102df5760405162461bcd60e51b81526004016102d690610ba7565b60405180910390fd5b6102e76108d7565b60006008546007546102f99190610be2565b60025460005460405163a9059cbb60e01b81529293506001600160a01b039182169263a9059cbb926103319216908590600401610bf9565b6020604051808303816000875af1158015610350573d6000803e3d6000fd5b505050506040513d601f19601f820116820180604052508101906103749190610c12565b6103b45760405162461bcd60e51b815260206004820152601160248201527015da5d1a191c985dd85b0811985a5b1959607a1b60448201526064016102d6565b50565b6103c0336108b9565b6103dc5760405162461bcd60e51b81526004016102d690610ba7565b600380546001600160a01b0319166001600160a01b0392909216919091179055565b6000546001600160a01b0391821691161490565b61041b336108b9565b6104375760405162461bcd60e51b81526004016102d690610ba7565b6002546001600160a01b0382811691161480159061046357506004546001600160a01b03828116911614155b6104d55760405162461bcd60e51b815260206004820152603b60248201527f506c6561736520757365207468652073706563696669656420636c61696d206660448201527f756e63746f6e7320666f7220737461636b6420616e642042555344000000000060648201526084016102d6565b6000546040516370a0823160e01b81526001600160a01b038084169263a9059cbb9291169083906370a0823190610510903090600401610b93565b602060405180830381865afa15801561052d573d6000803e3d6000fd5b505050506040513d601f19601f820116820180604052508101906105519190610c34565b6040518363ffffffff1660e01b815260040161056e929190610bf9565b6020604051808303816000875af115801561058d573d6000803e3d6000fd5b505050506040513d601f19601f820116820180604052508101906105b19190610c12565b6103b45760405162461bcd60e51b815260206004820152601b60248201527f456d657267656e6379207769746864726177616c206661696c6564000000000060448201526064016102d6565b610606336108b9565b6106225760405162461bcd60e51b81526004016102d690610ba7565b61062a6108d7565b565b600480546040516370a0823160e01b81526000926001600160a01b03909216916370a082319161065e91309101610b93565b602060405180830381865afa15801561067b573d6000803e3d6000fd5b505050506040513d601f19601f8201168201806040525081019061069f9190610c34565b905090565b6106ad336108b9565b6106c95760405162461bcd60e51b81526004016102d690610ba7565b61062a6109c0565b6106da336103fe565b6106f65760405162461bcd60e51b81526004016102d690610c4d565b6001600160a01b03166000908152600160208190526040909120805460ff19169091179055565b600a5460009060ff166107305750600090565b6000600954600554426107439190610be2565b61074d9190610c6d565b905060006006548260646107619190610c8f565b60075461076e9190610c8f565b6107789190610c6d565b9050600854816107889190610be2565b9250505090565b600754600854600061079f61071d565b9050909192565b6107af336108b9565b6107cb5760405162461bcd60e51b81526004016102d690610ba7565b42600555600a805460ff19166001179055565b6107e7336103fe565b6108035760405162461bcd60e51b81526004016102d690610c4d565b6001600160a01b03166000908152600160205260409020805460ff19169055565b61082d336103fe565b6108495760405162461bcd60e51b81526004016102d690610c4d565b600080546001600160a01b0319166001600160a01b0383169081178255815260016020819052604091829020805460ff19169091179055517f04dba622d284ed0014ee4b9a6a68386be1a4c08a4913ae272de89199cc686163906108ae908390610b93565b60405180910390a150565b6001600160a01b031660009081526001602052604090205460ff1690565b6108df6109c0565b60006108e961071d565b905080600860008282546108fd9190610cae565b909155505060025460035460405163a9059cbb60e01b81526001600160a01b039283169263a9059cbb92610938929116908590600401610bf9565b6020604051808303816000875af1158015610957573d6000803e3d6000fd5b505050506040513d601f19601f8201168201806040525081019061097b9190610c12565b6103b45760405162461bcd60e51b815260206004820152601660248201527514dd1858dad908151c985b9cd9995c8811985a5b195960521b60448201526064016102d6565b600260009054906101000a90046001600160a01b03166001600160a01b031663f0fc6bca6040518163ffffffff1660e01b8152600401600060405180830381600087803b158015610a1057600080fd5b505af1158015610a24573d6000803e3d6000fd5b5050600480546040516370a0823160e01b8152600094506001600160a01b0390911692506370a0823191610a5a91309101610b93565b602060405180830381865afa158015610a77573d6000803e3d6000fd5b505050506040513d601f19601f82011682018060405250810190610a9b9190610c34565b6004805460035460405163a9059cbb60e01b81529394506001600160a01b039182169363a9059cbb93610ad49390921691869101610bf9565b6020604051808303816000875af1158015610af3573d6000803e3d6000fd5b505050506040513d601f19601f82011682018060405250810190610b179190610c12565b6103b45760405162461bcd60e51b8152602060048201526014602482015273109554d108151c985b9cd9995c8811985a5b195960621b60448201526064016102d6565b6001600160a01b03811681146103b457600080fd5b600060208284031215610b8157600080fd5b8135610b8c81610b5a565b9392505050565b6001600160a01b0391909116815260200190565b6020808252600b908201526a085055551213d49256915160aa1b604082015260600190565b634e487b7160e01b600052601160045260246000fd5b600082821015610bf457610bf4610bcc565b500390565b6001600160a01b03929092168252602082015260400190565b600060208284031215610c2457600080fd5b81518015158114610b8c57600080fd5b600060208284031215610c4657600080fd5b5051919050565b60208082526006908201526510a7aba722a960d11b604082015260600190565b600082610c8a57634e487b7160e01b600052601260045260246000fd5b500490565b6000816000190483118215151615610ca957610ca9610bcc565b500290565b60008219821115610cc157610cc1610bcc565b50019056fea2646970667358221220527e88808f5a36a44f23085171c1da29ffb6cd972afd2c253e3c9be499116a0c64736f6c634300080c0033",
  "immutableReferences": {},
  "source": "// SPDX-License-Identifier: MIT\r\npragma solidity ^0.8.10;\r\n\r\nimport \"./Auth.sol\";\r\nimport \"./IStackd.sol\";\r\nimport \"./IERC20.sol\";\r\n\r\ncontract StackdTeamVestingInstance is Auth {\r\n\r\n    IStackd stackd;\r\n\r\n    address public beneficiary;\r\n    address public BUSD = 0xe9e7CEA3DedcA5984780Bafc599bD69ADd087D56;\r\n\r\n    uint public start;\r\n    uint public basisPoints = 10000;\r\n    uint public totalVested;\r\n    uint public totalClaimed;\r\n    uint public oneWeek = 604800;\r\n\r\n    bool public started;\r\n\r\n    constructor(address _stackd, uint _totalVesting, address _beneficiary) Auth(msg.sender) {\r\n        beneficiary = _beneficiary;\r\n        stackd = IStackd(_stackd);\r\n        totalVested = _totalVesting;\r\n    }\r\n\r\n    function startVesting() external authorized {\r\n        start = block.timestamp;\r\n        started = true;\r\n    }\r\n\r\n    function _claimStackd() internal {\r\n        _claimBUSD();\r\n        uint owed = getClaimableAmount();\r\n        totalClaimed += owed;\r\n        require(stackd.transfer(beneficiary, owed), \"Stackd Transfer Failed\");\r\n    }\r\n\r\n    function claimStackd() external authorized {\r\n        _claimStackd();\r\n    }\r\n\r\n    function getClaimableAmount() public view returns (uint) {\r\n        if (!started) {\r\n            return 0;\r\n        }\r\n\r\n        uint numWeeks = (block.timestamp - start) / oneWeek;\r\n        uint total = (totalVested * (numWeeks * 100)) / basisPoints;\r\n        return total - totalClaimed;\r\n    }\r\n\r\n    function getOwedBUSD() external view returns(uint) {\r\n        return IERC20(BUSD).balanceOf(address(this));\r\n    }\r\n\r\n    function _claimBUSD() internal {\r\n        stackd.claimDividend();\r\n        uint balance = IERC20(BUSD).balanceOf(address(this));\r\n        require(IERC20(BUSD).transfer(beneficiary, balance), \"BUSD Transfer Failed\");\r\n    }\r\n\r\n    function claimBUSD() external authorized {\r\n        _claimBUSD();\r\n    }\r\n\r\n    function changeBeneficiaryAddress(address newBeneficiary) external authorized {\r\n        beneficiary = newBeneficiary;\r\n    }\r\n\r\n    function emergencyWithdrawERC20(address _token) external authorized {\r\n        require(_token != address(stackd) && _token != BUSD, \"Please use the specified claim functons for stackd and BUSD\");\r\n        require(IERC20(_token).transfer(owner, IERC20(_token).balanceOf(address(this))), \"Emergency withdrawal failed\");\r\n    }\r\n\r\n    function cancelVesting() external authorized {\r\n        _claimStackd();\r\n        uint remaining = totalVested - totalClaimed;\r\n        require(stackd.transfer(owner, remaining), \"Withdrawal Failed\");\r\n    }\r\n\r\n    function getAllAmounts() external view returns(uint total, uint claimed, uint owed) {\r\n        total = totalVested;\r\n        claimed = totalClaimed;\r\n        owed = getClaimableAmount();\r\n        return (total, claimed, owed);\r\n    }\r\n}\r\n\r\ncontract StackdTeamVestingManager is Auth {\r\n    // TODO: Make sure we only want authorized wallets to be able to process vested tokens/busd rewards, personally\r\n    // TODO: I think that users should at least be able to claim their BUSD\r\n    IStackd stackd;\r\n    mapping(address => StackdTeamVestingInstance) public vestingInstances;\r\n    mapping(uint => address) public idToInstance;\r\n    StackdTeamVestingInstance[] instancesList;\r\n\r\n    constructor(address _stackd) Auth(msg.sender) {\r\n        stackd = IStackd(_stackd);\r\n    }\r\n\r\n    function authorizeInstance(address _instanceAddress, address _authorizedAddress) external authorized {\r\n        StackdTeamVestingInstance instance = StackdTeamVestingInstance(_instanceAddress);\r\n        instance.authorize(_authorizedAddress);\r\n    }\r\n\r\n    function processInstance(address user) external authorized {\r\n        StackdTeamVestingInstance instance = vestingInstances[user];\r\n        instance.claimStackd();\r\n    }\r\n\r\n    function getAllInstances() external view returns(StackdTeamVestingInstance[] memory) {\r\n        return instancesList;\r\n    }\r\n\r\n    function getAllAmountsForUser(address user) external view returns (uint, uint, uint){\r\n        StackdTeamVestingInstance instance = vestingInstances[user];\r\n        return instance.getAllAmounts();\r\n    }\r\n\r\n    function processMultipleInstances(uint start, uint end) external authorized {\r\n        for (uint i = start; i <= end; i++) {\r\n            StackdTeamVestingInstance instance = instancesList[i];\r\n            instance.claimStackd();\r\n        }\r\n    }\r\n\r\n    function cancelVestingInstance(address instanceAddress) external authorized {\r\n        StackdTeamVestingInstance instance = StackdTeamVestingInstance(instanceAddress);\r\n        instance.cancelVesting();\r\n        for (uint i = 0; i < instancesList.length; i++) {\r\n            if (address(instancesList[i]) == instanceAddress) {\r\n                instancesList[i] = instancesList[instancesList.length - 1];\r\n                idToInstance[i] = address(instancesList[i]);\r\n                instancesList.pop();\r\n            }\r\n        }\r\n    }\r\n\r\n    function withdrawERC20(address token, address to, uint amount) external authorized {\r\n        if (amount == 0) {\r\n            amount = IERC20(token).balanceOf(address(this));\r\n        }\r\n        require(IERC20(token).transfer(to, amount), \"Transfer Failed\");\r\n    }\r\n\r\n    function processOwedBUSD(address user) external {\r\n        StackdTeamVestingInstance instance = vestingInstances[user];\r\n        instance.claimBUSD();\r\n    }\r\n\r\n    function processMultipleOwedBUSD(uint start, uint end) external authorized {\r\n        for (uint i = start; i <= end; i++) {\r\n            StackdTeamVestingInstance instance = instancesList[i];\r\n            instance.claimBUSD();\r\n        }\r\n    }\r\n\r\n    function _startVesting(StackdTeamVestingInstance instance) internal {\r\n        instance.startVesting();\r\n    }\r\n\r\n    function startSingleVesting(StackdTeamVestingInstance instance) external authorized {\r\n        _startVesting(instance);\r\n    }\r\n\r\n    function startMultipleVesting(uint start, uint end) external authorized {\r\n        for (uint i = start; i <= end; i++) {\r\n            StackdTeamVestingInstance instance = instancesList[i];\r\n            _startVesting(instance);\r\n        }\r\n    }\r\n\r\n    function createVestingInstance(address beneficiary, uint amount) external authorized {\r\n        StackdTeamVestingInstance newInstance = new StackdTeamVestingInstance(address(stackd), amount, beneficiary);\r\n        idToInstance[instancesList.length] = address(newInstance);\r\n        instancesList.push(newInstance);\r\n        vestingInstances[beneficiary] = newInstance;\r\n        require(stackd.transferFrom(msg.sender, address(newInstance), amount), \"Stackd Transfer Failed\");\r\n    }\r\n\r\n}\r\n",
  "sourcePath": "C:\\Users\\Graham\\Desktop\\StackedFinance\\contracts\\StackedTeamVesting.sol",
  "compiler": {
    "name": "solc",
    "version": "0.8.12+commit.f00d7308.Emscripten.clang"
  },
  "schemaVersion": "3.4.6",
  "updatedAt": "2022-05-02T21:49:12.987Z",
  "devdoc": {
    "kind": "dev",
    "methods": {},
    "version": 1
  },
  "userdoc": {
    "kind": "user",
    "methods": {},
    "version": 1
  }
}