{
  "contractName": "StackdPrivateSaleVestingInstance",
  "abi": [
    {
      "inputs": [
        {
          "internalType": "address",
          "name": "_stackd",
          "type": "address"
        },
        {
          "internalType": "uint256",
          "name": "_totalVesting",
          "type": "uint256"
        },
        {
          "internalType": "address",
          "name": "_beneficiary",
          "type": "address"
        }
      ],
      "stateMutability": "nonpayable",
      "type": "constructor"
    },
    {
      "anonymous": false,
      "inputs": [
        {
          "indexed": false,
          "internalType": "address",
          "name": "owner",
          "type": "address"
        }
      ],
      "name": "OwnershipTransferred",
      "type": "event"
    },
    {
      "inputs": [],
      "name": "BUSD",
      "outputs": [
        {
          "internalType": "address",
          "name": "",
          "type": "address"
        }
      ],
      "stateMutability": "view",
      "type": "function"
    },
    {
      "inputs": [
        {
          "internalType": "address",
          "name": "adr",
          "type": "address"
        }
      ],
      "name": "authorize",
      "outputs": [],
      "stateMutability": "nonpayable",
      "type": "function"
    },
    {
      "inputs": [],
      "name": "basisPoints",
      "outputs": [
        {
          "internalType": "uint256",
          "name": "",
          "type": "uint256"
        }
      ],
      "stateMutability": "view",
      "type": "function"
    },
    {
      "inputs": [],
      "name": "beneficiary",
      "outputs": [
        {
          "internalType": "address",
          "name": "",
          "type": "address"
        }
      ],
      "stateMutability": "view",
      "type": "function"
    },
    {
      "inputs": [
        {
          "internalType": "address",
          "name": "adr",
          "type": "address"
        }
      ],
      "name": "isAuthorized",
      "outputs": [
        {
          "internalType": "bool",
          "name": "",
          "type": "bool"
        }
      ],
      "stateMutability": "view",
      "type": "function"
    },
    {
      "inputs": [
        {
          "internalType": "address",
          "name": "account",
          "type": "address"
        }
      ],
      "name": "isOwner",
      "outputs": [
        {
          "internalType": "bool",
          "name": "",
          "type": "bool"
        }
      ],
      "stateMutability": "view",
      "type": "function"
    },
    {
      "inputs": [],
      "name": "oneDay",
      "outputs": [
        {
          "internalType": "uint256",
          "name": "",
          "type": "uint256"
        }
      ],
      "stateMutability": "view",
      "type": "function"
    },
    {
      "inputs": [],
      "name": "start",
      "outputs": [
        {
          "internalType": "uint256",
          "name": "",
          "type": "uint256"
        }
      ],
      "stateMutability": "view",
      "type": "function"
    },
    {
      "inputs": [],
      "name": "started",
      "outputs": [
        {
          "internalType": "bool",
          "name": "",
          "type": "bool"
        }
      ],
      "stateMutability": "view",
      "type": "function"
    },
    {
      "inputs": [],
      "name": "totalClaimed",
      "outputs": [
        {
          "internalType": "uint256",
          "name": "",
          "type": "uint256"
        }
      ],
      "stateMutability": "view",
      "type": "function"
    },
    {
      "inputs": [],
      "name": "totalVested",
      "outputs": [
        {
          "internalType": "uint256",
          "name": "",
          "type": "uint256"
        }
      ],
      "stateMutability": "view",
      "type": "function"
    },
    {
      "inputs": [
        {
          "internalType": "address payable",
          "name": "adr",
          "type": "address"
        }
      ],
      "name": "transferOwnership",
      "outputs": [],
      "stateMutability": "nonpayable",
      "type": "function"
    },
    {
      "inputs": [
        {
          "internalType": "address",
          "name": "adr",
          "type": "address"
        }
      ],
      "name": "unauthorize",
      "outputs": [],
      "stateMutability": "nonpayable",
      "type": "function"
    },
    {
      "inputs": [
        {
          "internalType": "uint256",
          "name": "",
          "type": "uint256"
        }
      ],
      "name": "vestingAmounts",
      "outputs": [
        {
          "internalType": "uint256",
          "name": "",
          "type": "uint256"
        }
      ],
      "stateMutability": "view",
      "type": "function"
    },
    {
      "inputs": [],
      "name": "startVesting",
      "outputs": [],
      "stateMutability": "nonpayable",
      "type": "function"
    },
    {
      "inputs": [],
      "name": "claimStackd",
      "outputs": [],
      "stateMutability": "nonpayable",
      "type": "function"
    },
    {
      "inputs": [],
      "name": "getClaimableAmount",
      "outputs": [
        {
          "internalType": "uint256",
          "name": "",
          "type": "uint256"
        }
      ],
      "stateMutability": "view",
      "type": "function"
    },
    {
      "inputs": [],
      "name": "getOwedBUSD",
      "outputs": [
        {
          "internalType": "uint256",
          "name": "",
          "type": "uint256"
        }
      ],
      "stateMutability": "view",
      "type": "function"
    },
    {
      "inputs": [],
      "name": "claimBUSD",
      "outputs": [],
      "stateMutability": "nonpayable",
      "type": "function"
    },
    {
      "inputs": [
        {
          "internalType": "address",
          "name": "newBeneficiary",
          "type": "address"
        }
      ],
      "name": "changeBeneficiaryAddress",
      "outputs": [],
      "stateMutability": "nonpayable",
      "type": "function"
    },
    {
      "inputs": [
        {
          "internalType": "address",
          "name": "_token",
          "type": "address"
        }
      ],
      "name": "emergencyWithdrawERC20",
      "outputs": [],
      "stateMutability": "nonpayable",
      "type": "function"
    },
    {
      "inputs": [],
      "name": "cancelVesting",
      "outputs": [],
      "stateMutability": "nonpayable",
      "type": "function"
    },
    {
      "inputs": [],
      "name": "getAllAmounts",
      "outputs": [
        {
          "internalType": "uint256",
          "name": "total",
          "type": "uint256"
        },
        {
          "internalType": "uint256",
          "name": "claimed",
          "type": "uint256"
        },
        {
          "internalType": "uint256",
          "name": "owed",
          "type": "uint256"
        }
      ],
      "stateMutability": "view",
      "type": "function"
    }
  ],
  "bytecode": "0x6080604052600480546001600160a01b03191673e9e7cea3dedca5984780bafc599bd69add087d56179055612710600655620151806009553480156200004457600080fd5b50604051620011c6380380620011c6833981016040819052620000679162000273565b60008054336001600160a01b0319918216811783558252600160208190526040909220805460ff19169092179091556003805482166001600160a01b0384811691909117909155600280549092169085161790556007829055612710620000d1836105dc620002b4565b620000dd9190620002e2565b60008052600b6020527fdf7de25b7f1fd6d0b5205f0e18f1f35bd7b8d84cce336588d184533ce43a6f76556127106200011983610bb8620002b4565b620001259190620002e2565b6001600052600b6020527f72c6bfb7988af3a1efa6568f02a999bc52252641c659d85961ca3d372b57d5cf556127106200016283611194620002b4565b6200016e9190620002e2565b6002600052600b6020527fa50eece07c7db1631545c0069bd8f5f54d5935e215d59097edf258a44ba9163455612710620001ab83611770620002b4565b620001b79190620002e2565b6003600052600b6020527f64c15cc42be7899b001f818cf4433057002112c418d1d3a67cd5cb453051d33e55612710620001f483611d4c620002b4565b620002009190620002e2565b600b6020527f12d0c11577e2f0950f57c455c117796550b79f444811db8ba2f69c57b646c784555060056000527febae6141bae5521e99e0a8d610356b0f501fea54980b59c84841db43ba7204f4555062000305565b80516001600160a01b03811681146200026e57600080fd5b919050565b6000806000606084860312156200028957600080fd5b620002948462000256565b925060208401519150620002ab6040850162000256565b90509250925092565b6000816000190483118215151615620002dd57634e487b7160e01b600052601160045260246000fd5b500290565b6000826200030057634e487b7160e01b600052601260045260246000fd5b500490565b610eb180620003156000396000f3fe608060405234801561001057600080fd5b506004361061014d5760003560e01c80637a791065116100c3578063caf14b951161007c578063caf14b951461026f578063d54ad2a114610292578063deb36e321461029b578063f0b37c04146102a3578063f2fde38b146102b6578063fe9fbb80146102c957600080fd5b80637a7910651461021b578063af856c4b14610223578063afb5799914610243578063b6a5d7de1461024b578063be9a65551461025e578063c354bd6e1461026757600080fd5b806338af3eed1161011557806338af3eed146101bb57806340c442de146101db578063484f4ea9146101ee5780634bd9351b146102015780635fa2336a1461020a5780637a36afdb1461021357600080fd5b80630fee00ba1461015257806312d0e65a1461015c578063199cbc541461016f5780631f2698ab1461018b5780632f54bf6e146101a8575b600080fd5b61015a6102dc565b005b61015a61016a366004610d2d565b6103e2565b61017860075481565b6040519081526020015b60405180910390f35b600a546101989060ff1681565b6040519015158152602001610182565b6101986101b6366004610d2d565b610429565b6003546101ce906001600160a01b031681565b6040516101829190610d51565b61015a6101e9366004610d2d565b61043d565b6004546101ce906001600160a01b031681565b61017860095481565b61017860065481565b61015a610628565b610178610657565b610178610231366004610d65565b600b6020526000908152604090205481565b61015a6106cf565b61015a610259366004610d2d565b6106fc565b61017860055481565b610178610748565b61027761094d565b60408051938452602084019290925290820152606001610182565b61017860085481565b61015a610964565b61015a6102b1366004610d2d565b61099c565b61015a6102c4366004610d2d565b6109e2565b6101986102d7366004610d2d565b610a77565b6102e533610a77565b61030a5760405162461bcd60e51b815260040161030190610d7e565b60405180910390fd5b610312610a95565b60006008546007546103249190610db9565b60025460005460405163a9059cbb60e01b81529293506001600160a01b039182169263a9059cbb9261035c9216908590600401610dd0565b6020604051808303816000875af115801561037b573d6000803e3d6000fd5b505050506040513d601f19601f8201168201806040525081019061039f9190610de9565b6103df5760405162461bcd60e51b815260206004820152601160248201527015da5d1a191c985dd85b0811985a5b1959607a1b6044820152606401610301565b50565b6103eb33610a77565b6104075760405162461bcd60e51b815260040161030190610d7e565b600380546001600160a01b0319166001600160a01b0392909216919091179055565b6000546001600160a01b0391821691161490565b61044633610a77565b6104625760405162461bcd60e51b815260040161030190610d7e565b6002546001600160a01b0382811691161480159061048e57506004546001600160a01b03828116911614155b6105005760405162461bcd60e51b815260206004820152603b60248201527f506c6561736520757365207468652073706563696669656420636c61696d206660448201527f756e63746f6e7320666f7220737461636b6420616e64204255534400000000006064820152608401610301565b6000546040516370a0823160e01b81526001600160a01b038084169263a9059cbb9291169083906370a082319061053b903090600401610d51565b602060405180830381865afa158015610558573d6000803e3d6000fd5b505050506040513d601f19601f8201168201806040525081019061057c9190610e0b565b6040518363ffffffff1660e01b8152600401610599929190610dd0565b6020604051808303816000875af11580156105b8573d6000803e3d6000fd5b505050506040513d601f19601f820116820180604052508101906105dc9190610de9565b6103df5760405162461bcd60e51b815260206004820152601b60248201527f456d657267656e6379207769746864726177616c206661696c656400000000006044820152606401610301565b61063133610a77565b61064d5760405162461bcd60e51b815260040161030190610d7e565b610655610a95565b565b600480546040516370a0823160e01b81526000926001600160a01b03909216916370a082319161068991309101610d51565b602060405180830381865afa1580156106a6573d6000803e3d6000fd5b505050506040513d601f19601f820116820180604052508101906106ca9190610e0b565b905090565b6106d833610a77565b6106f45760405162461bcd60e51b815260040161030190610d7e565b610655610b7e565b61070533610429565b6107215760405162461bcd60e51b815260040161030190610e24565b6001600160a01b03166000908152600160208190526040909120805460ff19169091179055565b600a5460009060ff1661075b5750600090565b6009546107699060b4610e44565b6005546107769042610db9565b1061078b576008546007546106ca9190610db9565b600954610799906096610e44565b6005546107a69042610db9565b106107e4576008546004600052600b6020527f12d0c11577e2f0950f57c455c117796550b79f444811db8ba2f69c57b646c784546106ca9190610db9565b6009546107f2906078610e44565b6005546107ff9042610db9565b1061083d576008546003600052600b6020527f64c15cc42be7899b001f818cf4433057002112c418d1d3a67cd5cb453051d33e546106ca9190610db9565b60095461084b90605a610e44565b6005546108589042610db9565b10610896576008546002600052600b6020527fa50eece07c7db1631545c0069bd8f5f54d5935e215d59097edf258a44ba91634546106ca9190610db9565b6009546108a490603c610e44565b6005546108b19042610db9565b106108ef576008546001600052600b6020527f72c6bfb7988af3a1efa6568f02a999bc52252641c659d85961ca3d372b57d5cf546106ca9190610db9565b6009546108fd90601e610e44565b60055461090a9042610db9565b106109475760085460008052600b6020527fdf7de25b7f1fd6d0b5205f0e18f1f35bd7b8d84cce336588d184533ce43a6f76546106ca9190610db9565b50600090565b600754600854600061095d610748565b9050909192565b61096d33610a77565b6109895760405162461bcd60e51b815260040161030190610d7e565b42600555600a805460ff19166001179055565b6109a533610429565b6109c15760405162461bcd60e51b815260040161030190610e24565b6001600160a01b03166000908152600160205260409020805460ff19169055565b6109eb33610429565b610a075760405162461bcd60e51b815260040161030190610e24565b600080546001600160a01b0319166001600160a01b0383169081178255815260016020819052604091829020805460ff19169091179055517f04dba622d284ed0014ee4b9a6a68386be1a4c08a4913ae272de89199cc68616390610a6c908390610d51565b60405180910390a150565b6001600160a01b031660009081526001602052604090205460ff1690565b610a9d610b7e565b6000610aa7610748565b90508060086000828254610abb9190610e63565b909155505060025460035460405163a9059cbb60e01b81526001600160a01b039283169263a9059cbb92610af6929116908590600401610dd0565b6020604051808303816000875af1158015610b15573d6000803e3d6000fd5b505050506040513d601f19601f82011682018060405250810190610b399190610de9565b6103df5760405162461bcd60e51b815260206004820152601660248201527514dd1858dad908151c985b9cd9995c8811985a5b195960521b6044820152606401610301565b600260009054906101000a90046001600160a01b03166001600160a01b031663f0fc6bca6040518163ffffffff1660e01b8152600401600060405180830381600087803b158015610bce57600080fd5b505af1158015610be2573d6000803e3d6000fd5b5050600480546040516370a0823160e01b8152600094506001600160a01b0390911692506370a0823191610c1891309101610d51565b602060405180830381865afa158015610c35573d6000803e3d6000fd5b505050506040513d601f19601f82011682018060405250810190610c599190610e0b565b6004805460035460405163a9059cbb60e01b81529394506001600160a01b039182169363a9059cbb93610c929390921691869101610dd0565b6020604051808303816000875af1158015610cb1573d6000803e3d6000fd5b505050506040513d601f19601f82011682018060405250810190610cd59190610de9565b6103df5760405162461bcd60e51b8152602060048201526014602482015273109554d108151c985b9cd9995c8811985a5b195960621b6044820152606401610301565b6001600160a01b03811681146103df57600080fd5b600060208284031215610d3f57600080fd5b8135610d4a81610d18565b9392505050565b6001600160a01b0391909116815260200190565b600060208284031215610d7757600080fd5b5035919050565b6020808252600b908201526a085055551213d49256915160aa1b604082015260600190565b634e487b7160e01b600052601160045260246000fd5b600082821015610dcb57610dcb610da3565b500390565b6001600160a01b03929092168252602082015260400190565b600060208284031215610dfb57600080fd5b81518015158114610d4a57600080fd5b600060208284031215610e1d57600080fd5b5051919050565b60208082526006908201526510a7aba722a960d11b604082015260600190565b6000816000190483118215151615610e5e57610e5e610da3565b500290565b60008219821115610e7657610e76610da3565b50019056fea264697066735822122034acc562d04d2eeb25a32372c350eaa27e1e15a45d9c3d65e04521d420d0dc6364736f6c634300080c0033",
  "immutableReferences": {},
  "source": "// SPDX-License-Identifier: MIT\r\npragma solidity ^0.8.10;\r\n\r\nimport \"./Auth.sol\";\r\nimport \"./IStackd.sol\";\r\nimport \"./IERC20.sol\";\r\n\r\ncontract StackdPrivateSaleVestingInstance is Auth {\r\n\r\n    IStackd stackd;\r\n\r\n    address public beneficiary;\r\n    address public BUSD = 0xe9e7CEA3DedcA5984780Bafc599bD69ADd087D56;\r\n\r\n    uint public start;\r\n    uint public basisPoints = 10000;\r\n    uint public totalVested;\r\n    uint public totalClaimed;\r\n    uint public oneDay = 86400;\r\n\r\n    bool public started;\r\n\r\n    mapping(uint => uint) public vestingAmounts;\r\n\r\n    constructor(address _stackd, uint _totalVesting, address _beneficiary) Auth(msg.sender) {\r\n        beneficiary = _beneficiary;\r\n        stackd = IStackd(_stackd);\r\n        totalVested = _totalVesting;\r\n        vestingAmounts[0] = (1500 * _totalVesting) / 10000;\r\n        vestingAmounts[1] = (3000 * _totalVesting) / 10000;\r\n        vestingAmounts[2] = (4500 * _totalVesting) / 10000;\r\n        vestingAmounts[3] = (6000 * _totalVesting) / 10000;\r\n        vestingAmounts[4] = (7500 * _totalVesting) / 10000;\r\n        vestingAmounts[5] = _totalVesting;\r\n    }\r\n\r\n    function startVesting() external authorized {\r\n        start = block.timestamp;\r\n        started = true;\r\n    }\r\n\r\n    function _claimStackd() internal {\r\n        _claimBUSD();\r\n        uint owed = getClaimableAmount();\r\n        totalClaimed += owed;\r\n        require(stackd.transfer(beneficiary, owed), \"Stackd Transfer Failed\");\r\n    }\r\n\r\n    function claimStackd() external authorized {\r\n        _claimStackd();\r\n    }\r\n\r\n    function getClaimableAmount() public view returns (uint) {\r\n        if (!started) {\r\n            return 0;\r\n        }\r\n        if (block.timestamp - start >= 180 * oneDay) {\r\n            return totalVested - totalClaimed;\r\n        }\r\n        else if (block.timestamp - start >= 150 * oneDay) {\r\n            return vestingAmounts[4] - totalClaimed;\r\n        }\r\n        else if (block.timestamp - start >= 120 * oneDay) {\r\n            return vestingAmounts[3] - totalClaimed;\r\n        }\r\n        else if (block.timestamp - start >= 90 * oneDay) {\r\n            return vestingAmounts[2] - totalClaimed;\r\n        }\r\n        else if (block.timestamp - start >= 60 * oneDay) {\r\n            return vestingAmounts[1] - totalClaimed;\r\n        }\r\n        else if (block.timestamp - start >= 30 * oneDay) {\r\n            return vestingAmounts[0] - totalClaimed;\r\n        }\r\n        else {\r\n            return 0;\r\n        }\r\n    }\r\n\r\n    function getOwedBUSD() external view returns(uint) {\r\n        return IERC20(BUSD).balanceOf(address(this));\r\n    }\r\n\r\n    function _claimBUSD() internal {\r\n        stackd.claimDividend();\r\n        uint balance = IERC20(BUSD).balanceOf(address(this));\r\n        require(IERC20(BUSD).transfer(beneficiary, balance), \"BUSD Transfer Failed\");\r\n    }\r\n\r\n    function claimBUSD() external authorized {\r\n        _claimBUSD();\r\n    }\r\n\r\n    function changeBeneficiaryAddress(address newBeneficiary) external authorized {\r\n        beneficiary = newBeneficiary;\r\n    }\r\n\r\n    function emergencyWithdrawERC20(address _token) external authorized {\r\n        require(_token != address(stackd) && _token != BUSD, \"Please use the specified claim functons for stackd and BUSD\");\r\n        require(IERC20(_token).transfer(owner, IERC20(_token).balanceOf(address(this))), \"Emergency withdrawal failed\");\r\n    }\r\n\r\n    function cancelVesting() external authorized {\r\n        _claimStackd();\r\n        uint remaining = totalVested - totalClaimed;\r\n        require(stackd.transfer(owner, remaining), \"Withdrawal Failed\");\r\n    }\r\n\r\n    function getAllAmounts() external view returns(uint total, uint claimed, uint owed) {\r\n        total = totalVested;\r\n        claimed = totalClaimed;\r\n        owed = getClaimableAmount();\r\n        return (total, claimed, owed);\r\n    }\r\n}\r\n\r\ncontract StackdPrivateSaleVestingManager is Auth {\r\n    // TODO: Make sure we only want authorized wallets to be able to process vested tokens/busd rewards, personally\r\n    // TODO: I think that users should at least be able to claim their BUSD\r\n    IStackd stackd;\r\n    mapping(address => StackdPrivateSaleVestingInstance) public vestingInstances;\r\n    mapping(uint => address) public idToInstance;\r\n    StackdPrivateSaleVestingInstance[] instancesList;\r\n\r\n\r\n    constructor(address _stackd) Auth(msg.sender) {\r\n        stackd = IStackd(_stackd);\r\n    }\r\n\r\n    function authorizeInstance(address _instanceAddress, address _authorizedAddress) external authorized {\r\n        StackdPrivateSaleVestingInstance instance = StackdPrivateSaleVestingInstance(_instanceAddress);\r\n        instance.authorize(_authorizedAddress);\r\n    }\r\n\r\n    function processInstance(address user) external authorized {\r\n        StackdPrivateSaleVestingInstance instance = vestingInstances[user];\r\n        instance.claimStackd();\r\n    }\r\n\r\n    function getAllInstances() external view returns(StackdPrivateSaleVestingInstance[] memory) {\r\n        return instancesList;\r\n    }\r\n\r\n    function getAllAmountsForUser(address user) external view returns (uint, uint, uint){\r\n        StackdPrivateSaleVestingInstance instance = vestingInstances[user];\r\n        return instance.getAllAmounts();\r\n    }\r\n\r\n    function processMultipleInstances(uint start, uint end) external authorized {\r\n        for (uint i = start; i <= end; i++) {\r\n            StackdPrivateSaleVestingInstance instance = instancesList[i];\r\n            instance.claimStackd();\r\n        }\r\n    }\r\n\r\n    function cancelVestingInstance(address instanceAddress) external authorized {\r\n        StackdPrivateSaleVestingInstance instance = StackdPrivateSaleVestingInstance(instanceAddress);\r\n        instance.cancelVesting();\r\n        for (uint i = 0; i < instancesList.length; i++) {\r\n            if (address(instancesList[i]) == instanceAddress) {\r\n                instancesList[i] = instancesList[instancesList.length - 1];\r\n                idToInstance[i] = address(instancesList[i]);\r\n                instancesList.pop();\r\n            }\r\n        }\r\n    }\r\n\r\n    function withdrawERC20(address token, address to, uint amount) external authorized {\r\n        if (amount == 0) {\r\n            amount = IERC20(token).balanceOf(address(this));\r\n        }\r\n        require(IERC20(token).transfer(to, amount), \"Transfer Failed\");\r\n    }\r\n\r\n    function processOwedBUSD(address user) external {\r\n        StackdPrivateSaleVestingInstance instance = vestingInstances[user];\r\n        instance.claimBUSD();\r\n    }\r\n\r\n    function processMultipleOwedBUSD(uint start, uint end) external authorized {\r\n        for (uint i = start; i <= end; i++) {\r\n            StackdPrivateSaleVestingInstance instance = instancesList[i];\r\n            instance.claimBUSD();\r\n        }\r\n    }\r\n\r\n    function _startVesting(StackdPrivateSaleVestingInstance instance) internal {\r\n        instance.startVesting();\r\n    }\r\n\r\n    function startSingleVesting(StackdPrivateSaleVestingInstance instance) external authorized {\r\n        _startVesting(instance);\r\n    }\r\n\r\n    function startMultipleVesting(uint start, uint end) external authorized {\r\n        for (uint i = start; i <= end; i++) {\r\n            StackdPrivateSaleVestingInstance instance = instancesList[i];\r\n            _startVesting(instance);\r\n        }\r\n    }\r\n\r\n    function createVestingInstance(address beneficiary, uint amount) external authorized {\r\n        StackdPrivateSaleVestingInstance newInstance = new StackdPrivateSaleVestingInstance(address(stackd), amount, beneficiary);\r\n        idToInstance[instancesList.length] = address(newInstance);\r\n        instancesList.push(newInstance);\r\n        vestingInstances[beneficiary] = newInstance;\r\n        require(stackd.transferFrom(msg.sender, address(newInstance), amount), \"Stackd Transfer Failed\");\r\n    }\r\n\r\n}\r\n",
  "sourcePath": "C:\\Users\\Graham\\Desktop\\StackedFinance\\contracts\\StackedPrivateVesting.sol",
  "compiler": {
    "name": "solc",
    "version": "0.8.12+commit.f00d7308.Emscripten.clang"
  },
  "schemaVersion": "3.4.6",
  "updatedAt": "2022-05-02T21:49:12.949Z",
  "devdoc": {
    "kind": "dev",
    "methods": {},
    "version": 1
  },
  "userdoc": {
    "kind": "user",
    "methods": {},
    "version": 1
  }
}